:020000040800F2
:10000000B8490020A1010008C9560008ED400008C9
:10001000715400080F130008698C000800000000EC
:10002000000000000000000000000000195F000850
:10003000F514000800000000255B00081D5F0008A3
:10004000BB010008BB010008BB010008BB010008A0
:10005000BB010008BB010008BB010008BB01000890
:10006000BB010008BB010008BB0100087D130008AC
:100070008913000895130008A1130008BD13000898
:10008000D9130008E5130008BB010008BB010008F4
:10009000BB010008BB010008BB010008BB01000850
:1000A000BB010008BB010008BB010008BB01000840
:1000B000BB0100088560000891600008BB010008D2
:1000C000BB010008BB010008BB010008BB01000820
:1000D000BB0100086D6A00089D6A0008D16A00082B
:1000E000BB010008BB010008BB010008BB01000800
:1000F000BB010008BB010008BB0100080114000897
:10010000BB010008BB010008BB010008BB010008DF
:10011000A5630008D5630008BB010008BB01000807
:10012000BB0100081D14000829140008BB010008C9
:10013000BB010008BB010008BB010008BB010008AF
:10014000BB010008BB010008BB010008CD56000838
:10015000BB01000835140008BB010008016B000852
:10016000BB010008BB010008BB010008BB0100087F
:10017000BB010008BB010008BB0100080000000033
:10018000BB010008BB010008DFF810D000F020FB25
:1001900000480047699C0008AFF30080B849002080
:1001A0000648804706480047FEE7FEE7FEE7FEE711
:1001B000FEE7FEE7FEE7FEE7FEE7FEE73160000848
:1001C000890100082DE9F05F0546002092469B4614
:1001D00088460646814640241BE02846414647465D
:1001E000224600F0CFF953465A46C01A914110D327
:1001F00011461846224600F0B6F92D1A67EB0108A1
:100200004F4622460120002100F0ADF917EB00090E
:100210004E41201EA4F10104DFDC484631462A4647
:100220004346BDE8F09F10B5431A934209D28318A4
:10023000881803E010F8011D03F8011D521EF9D2C1
:1002400010BD40EA01039B0703D009E008C9121F53
:1002500008C0042AFAD203E011F8013B00F8013B80
:10026000521EF9D210BDD2B201E000F8012B491E96
:10027000FBD270470022F6E710B513460A46044643
:100280001946FFF7F0FF204610BD2DE9FE4F8046CE
:1002900081EA0300C00F0C46009021F0004123F0DA
:1002A0000045B8EB0200A94105D2404621469046E0
:1002B0001C460B46024623F00040104347D0270D52
:1002C000C7F30A00C3F30A510290401A0190402874
:1002D0006BDAC3F3130040F4801B0098924620B100
:1002E0000023D2EB030A63EB0B0B01985946C0F1D4
:1002F0004002504600F037F906460D465046594632
:10030000019A00F04FF910EB08006141002487EAE0
:10031000115284EAE7731A4340D0009A62B3019AFB
:10032000012A4FEA075215DC001B61EB02014FF076
:10033000004202EA0752CDE90042001C41F580115B
:1003400032462B4600F086F903B0BDE8F08F4046F8
:100350002146F9E7001B61EB0201001C41F5801307
:1003600000185B412018A2F5001747EB030140EA93
:10037000D570B6196D4111E06D084FEA360645EAB1
:10038000C0754FEA0752001B61EB0201001C41F5EA
:10039000801149084FEA30000019514132462B467E
:1003A00003B0BDE8F04F00F046B9009801224000CC
:1003B0000023D0EB020263EBE073009821464FEA82
:1003C000E074B8EB000061EB0401E9E783F000435F
:1003D0005BE781F0004158E72DE9FE4F81EA030415
:1003E00004F0004421F0004100944FF0000B23F092
:1003F000004350EA01045ED052EA03045BD0C3F329
:100400000A54C1F30A552C44A4F2F3340194A0FB1E
:100410000254C1F3130141F48011C3F3130343F4F5
:10042000801301FB024400FB034E840A970A44EA4E
:10043000815447EA8357A4FB076802958D0A05FBA0
:1004400007854FEA932C04FB0C542705029D4FEAC5
:10045000065847EA1637B5EB08056EEB070C870E12
:10046000920E47EA811742EA8312A7FB0201B6EB1C
:100470000B0164EB00042B0D43EA0C335E1844EBD4
:100480001C50DA465146E7FB0201C5F313044FEA5C
:100490000B3343EA14534FEA0432019C43EA060348
:1004A000A4F10C040294009CCDE900B400F0D2F851
:1004B00003B0BDE8F08F00200146F9E70EB540F229
:1004C000334102910021CDE900110A460B4600F0AC
:1004D000C1F803B000BDC1F30A5210B5C1F3130156
:1004E00040F2FF3341F480119A4201DA002010BD3E
:1004F00040F233439A42A2F2334203DC524200F00C
:1005000041F810BD904010BD00F0004230F00040B6
:100510000AD0C10D01F56071C0F3160042EA015125
:10052000C20840071143704700200146704701F0A0
:10053000004330B421F0004150EA010206D00A0D18
:10054000A2F56072C1F31301002A02DC30BC002066
:100550007047440F44EAC104C100E01830BC00EB0E
:10056000C25000F031B8202A04DB203A00FA02F130
:10057000002070479140C2F1200320FA03F3194391
:1005800090407047202A04DB203A21FA02F0002133
:10059000704721FA02F3D040C2F120029140084393
:1005A00019467047202A06DBCB17203A41FA02F0A1
:1005B00043EAE07306E041FA02F3D040C2F12002C0
:1005C00091400843194670470029A8BF7047401C56
:1005D000490008BF20F00100704710B4B0FA80FC59
:1005E00000FA0CF050EA010404BF10BC704749B196
:1005F000CCF1200421FA04F411FA0CF118BF012106
:1006000021430843A3EB0C01CB1D4FEA00614FEAE5
:10061000102042BF002010BC704700EBC3501044B4
:100620000029A4BF10BC7047401C490008BF20F03F
:10063000010010BC704710B5141E73F1000408DAF5
:10064000401C41F1000192185B411A4301D120F096
:10065000010010BD2DE9F04D92469B4611B1B1FA53
:1006600081F202E0B0FA80F220329046FFF77BFF81
:1006700004460F4640EA0A0041EA0B0153465A4637
:10068000084313D0114653EA010019D0C8F14002C3
:100690005046FFF777FF05460E46504659464246FC
:1006A000FFF761FF084305D0012004E020463946EA
:1006B000BDE8F08D0020054346EAE0762C43374341
:1006C0000A986305E40AA0EB08000022FD0A44EA48
:1006D00047540A3002D500200146E9E70105101908
:1006E0006941DDE9084500196941BDE8F04DA2E71F
:1006F0002DE9F04D81EA030404F0004B21F00045A0
:1007000014464FF0000A23F0004150EA050220D0C1
:1007100054EA01021DD0C5F30A570246C5F313037C
:10072000C1F31300C1F30A5640F4801543F480135B
:10073000A7EB0608101BD64608F2FD3873EB050040
:1007400002D308F1010801E092185B41B8F1000FF3
:1007500003DA00200146BDE8F08D00204FF480113F
:10076000064684460EE0171B73EB050705D3121BE4
:1007700063EB050306434CEA010C49084FEA3000DD
:1007800092185B4150EA0107EDD152EA030012D002
:1007900082EA040083EA0501084305D0101BAB413F
:1007A00006D20122002306E000224FF0004302E0BF
:1007B0006FF0010253101AEB06004CEB085110EBDE
:1007C0000A0041EB0B01BDE8F04DFFF734BF00001C
:1007D000064C074D06E0E06840F0010394E807008E
:1007E00098471034AC42F6D3FFF7D2FC98DE0008ED
:1007F000B8DE00082DE9F04D00231A461B1A8A4185
:1008000003DB00200146BDE8F08DC1F30A52C1F3BD
:10081000130141F480154FF0000BD10702D10018ED
:100820006D41521E0027044640F2FF11384601EB8D
:10083000620A3E468046024600204FF48011FFF7D0
:10084000A1FEC2197141BB1846EB0100B4EB030CC9
:1008500075EB000C04D3E41A65EB000517460E4651
:10086000241908F101006D4180463428E3DDF919AF
:1008700046EB0600091BA84103D24FF0FF32134696
:1008800001E0002213461BEB070046EB0A51BDE8CE
:10089000F04DFFF7D0BE70B58C1810F8015B15F065
:1008A000070301D110F8013B2A1106D110F8012BE2
:1008B00003E010F8016B01F8016B5B1EF9D12B0707
:1008C00005D40023521E0DD401F8013BFAE710F8BD
:1008D000013BCB1A921C03E013F8015B01F8015BAA
:1008E000521EF9D5A142D8D3002070BD30B5904B2F
:1008F00090489149D3ED003AC0ED053A93ED021AC4
:1009000080ED071A93ED014A11EE102A80ED034A9B
:100910008988A1F2DC5100EE901AF8EEE00ADFEDD2
:10092000871A03F11401864D60EEA10AC1ED000A99
:1009300090ED062A12EE104ADFED821AAC4206DB79
:10094000F5EEC00AF1EE10FA01DDC1ED001A7E4DA0
:100950000C68AC4204DA7D4DAC4201D2C1ED001A04
:100960007B4C91ED003AD4ED030ADFED7A2AB5EE27
:10097000C03AF1EE10FA04DBDFED774A43EE240AC9
:1009800001E043EE220AC1ED010ADFED740AD1ED68
:10099000024A20EE203AD1ED010A70EEE40AC0EDE1
:1009A000010AF4EEC30AF1EE10FA06DCB1EE433AA6
:1009B000F4EEC30AF1EE10FA01D280ED013AD0ED67
:1009C000010A34EEA03A81ED023AD1ED030A73EE4A
:1009D000604A9FED635A44EE850AC1ED030A6149FE
:1009E0004979C1B10478B4B100EE802AC0ED040A9F
:1009F00071EE220A80ED062AF4EEC20AF1EE10FA38
:100A000006D371EE620AF4EEC20AF1EE10FA06DDC8
:100A1000C0ED060A03E0C0ED041A80ED061AD0ED21
:100A2000060A514DF7EE082ABDEEE02A70EEC10A23
:100A300012EE104ABDEEC12A2C804C4D12EE104A27
:100A40002C80C0ED080A90ED042A00EEA22ADFED0A
:100A5000480A44EE203A72EE630AB1EE042AC0ED71
:100A6000090A20EE822A80ED022A72EE440AC0EDC5
:100A70000A0ADFED402A404D60EEA22AD0ED0B0AB3
:100A800042EE800A10EE904AC0ED0B0AAC4202DD45
:100A9000DFED3A0A06E0F5EEC00AF1EE10FA01D2F7
:100AA000F0EE610A9FED360AC0ED0B0A354D22EEDD
:100AB000000A80ED0C0A30EE200A10EE104A80ED9C
:100AC0000D0AAC4202DD9FED300A06E0B5EEC00A29
:100AD000F1EE10FA01D2B0EE610A80ED0D0ABCEE23
:100AE000C00A10EE104A1C82284C2478E40710D06B
:100AF000012461B1BDEEC30A10EE101A09B200293B
:100B000006DD23498A420BDA22498A4208D2047060
:100B100030BDC0ED0B1A80ED061A0021017030BD0A
:100B2000C3ED021AC3ED011AC3ED001A30BD000077
:100B300010430020DC040020744300206F12833A2D
:100B400000001643000000009A99193E9A9919BEB8
:100B50007444002000001643000048430000FA439C
:100B6000CDCC4C3E5027002006020020040200207D
:100B7000CDCC4C3D9A99193F000016440000164414
:100B8000CDCCCC3E00007A4400007A44CE04002054
:100B900000002042000020C270B5C94CF6EE000AE9
:100BA0002DED028B60EE208AD4ED010A94ED031A3C
:100BB000D4ED001A94ED020A20EE812AB0EE008AEC
:100BC0008AB0C04901EEC02A61EEA01A60EEA00A08
:100BD000054640EE011A40EE000AB7EE000A22EE8A
:100BE000082A21EE881A00EEC80A8DED002A8DED44
:100BF000011A8DED020AB1F9000000EE100AB1F9F8
:100C0000020000EE900AB8EEC00AB8EEE01A00EE5C
:100C1000900A20EE000AB1F90400F8EEE00A01EEB5
:100C2000200A00EE900AB8EEE01A00EE900AF8EE04
:100C3000E00A01EE200A05F02FF8B5F90000A4F152
:100C40001C0600EE900AF8EEE00A60EE800ACDED98
:100C5000030AB5F9020000EE900AF8EEE00A60EE31
:100C6000800ACDED040AB5F9040000EE900AF8EE12
:100C7000E00A20EE800A8DED050A9DED040ADDED07
:100C8000020A9DED011A20EE200ADDED050A00EEB4
:100C9000C10A8DED060A9DED050ADDED000A9DED08
:100CA000021A20EE200ADDED030A00EEC10A8DEDE6
:100CB000070A9DED030ADDED010A9DED001A20EE05
:100CC000200ADDED040A00EEC10A8DED080AB5F92F
:100CD00006009DED061A00EE100A7B48B8EEC00A29
:100CE000D0ED000A60EE200A96ED000A40EE010AFF
:100CF000CDED000AB5F9081090ED001A00EE901A3B
:100D0000F8EEE00A60EE810A9DED071A40EE010A56
:100D1000CDED010AB5F90A1090ED001A00EE901A17
:100D2000F8EEE00A60EE810A9DED081A40EE010A35
:100D3000CDED020A94ED011A9DED000AD4ED020AF0
:100D40009DED022A60EE411A9DED010A40EEC01AA7
:100D500094ED030A40EE421A9DED002A21EEA83AD6
:100D6000D4ED001ADDED012ADDED013A21EE822AF3
:100D70009DED004A31EE833A00EE622ADDED022A53
:100D800000EEA22ADDED002A60EE222A22EE282AB9
:100D900041EEA32ADDED023A41EE632A62EEA83A63
:100DA000DDED012A61EE222A31EE021A40EEC42A5C
:100DB0009DED024A70EEA30A84ED003A84ED011A1B
:100DC000C4ED020A41EE842A62EEA82A70EE221ACD
:100DD00023EE030AC4ED031A01EE010A00EEA00A95
:100DE00001EEA10A04F058FFD4ED000A60EE801A6B
:100DF000C4ED001AD4ED010A21EE883A61EEA11A81
:100E000020EE801A84ED011AD4ED020A61EE082A60
:100E100041EE411A60EE800AC4ED020A94ED032A05
:100E200040EEE01A22EE000A23EE202A84ED030AA7
:100E300040EE001A02EEC02A60EE882A62EE802A96
:100E400086ED022A43EE012A9FED221AC6ED032AFF
:100E5000C6ED041AB5F90000404200EE100AB5F9DB
:100E60000200B8EEC00A00EE900AB5F9040020EEC8
:100E7000020AF8EEE00A00EEA20A00EE900AA4F1DF
:100E80000800F8EEE00A00EEA10ADFED100A86ED98
:100E9000010A30EE600ADFED0E0A60EE200AC0EDB6
:100EA000000A90ED010A70EEC00A00EE810A80EDA2
:100EB000010A094880ED010A0AB0BDEC028B70BD41
:100EC000D0010020A026002044DE000800000045DC
:100ED0007D3FF53ECDCCCC3D104300200848C37982
:100EE0001BB181810021C17102E08189491E81818C
:100EF0008189002903D10121C17102480274704720
:100F000080050020F844002070B57E491A222DED9E
:100F1000048B01F13800FFF786F97A4800F12005CB
:100F20000178AA2925D14178AF2922D1818849BAEF
:100F30002980C18849BA6980018949BAA980418953
:100F400049BAE980818949BA2981C18949BA698147
:100F5000018A49BAA981418A49BAE981818A49BA93
:100F60002982C18A49BA6982008B40BAA88204F0FA
:100F7000A9FE644838300188A1F52A42AA3A17D15F
:100F8000018BA1F5AA42553A12D15F4A0321D170D3
:100F900001892980C18869808188A9804189E98087
:100FA000C1892981818969814088688204F08AFE2B
:100FB000564801780F297AD1524CB0F80110203CE4
:100FC000C1F30A0121808178CA08C17842EA41123E
:100FD000C2F30A0262800279890941EA82024179F8
:100FE00042EA8122C2F30A02A2804A08817942EAD7
:100FF000C112C2F30A02E2800A09C17942EA01126F
:10100000C2F30A022281027AC90941EA4202417A04
:1010100042EA4122C2F30A0262818A08817A42EAE4
:101020008112C2F30A02A281C27A490941EAC201CD
:10103000E1818189C1F30A012182417BCA08817B58
:1010400042EA4112C2F30A026282C27B890941EA82
:101050008202017C42EA8122C2F30A02A2824A0889
:10106000417C42EAC112C2F30A02E2820A09817C8F
:1010700042EA0112C2F30A022283C27CC90941EA90
:101080004202017D42EA4122C2F30A0262838A08D7
:10109000417D9FED1F8B42EA8112C2F30A02A283B7
:1010A0004909807D002641EAC000E08300E022E09B
:1010B0009FED199B34F81600FFF700FA53EC182B3C
:1010C000FFF78AF953EC192BFFF7DFF8FFF703FA64
:1010D00024F81600761C102EECDB608868802088CF
:1010E0002880E088E880A088A88020892881E0897D
:1010F000688104F0E7FD0A4932204860BDEC048BAA
:1011000070BD0000544300209E0100207427002081
:101110007F6ABC749318E83F0000000000A8874075
:101120005C050020F0B40021144B42F210760C460E
:10113000DA1C5D5CA5B122F811405C54491CC9B2AF
:101140000229F6D313884FF47A710D488B4202D8E6
:1011500052888A420DD90470F0BC002000F0C2B859
:1011600032F81150B542E8D207783D4422F81150C8
:10117000E3E701210170F0BC70470000E3010020AB
:10118000D42600202DE9F0410022044610464B1ED3
:1011900004E0255C401C2A44D2B2C0B29842F8DB7D
:1011A000601810F8010C904233D1E078234E224DA4
:1011B000012706F10308512821D1607958B301288D
:1011C00027D13069401C3061A07900F08BF8E079BC
:1011D000217A41EA00202881607AA17A41EA002040
:1011E0006881E07A217B41EA0020A881607BA17BB5
:1011F00041EA0020E881E07C687188F80070E078BE
:10120000522806D1607980B1012802D1E08840BA25
:101210006882BDE8F081A07900F064F8E079A871F7
:10122000207AE871607A6871E9E7F068401CF06044
:1012300088F80170EDE70000D4260020E0010020CE
:10124000264930B48A78264B002482B1012A15D071
:10125000022A19D0032A1BD0042A1DD00B46204D88
:101260001B78052A1D4420D0062A2CD033E0AA285A
:1012700031D101228A70187030BC704722282AD1DF
:1012800002228A705870F7E703228A709870F3E799
:1012900004228A70D870EFE705228A7018714870AE
:1012A000282800D98C700C70E6E74A789AB1521E53
:1012B00012F0FF024A70687103F101030B70DBD179
:1012C00006208870D8E78C7068719B1D30BCD9B23D
:1012D0000348FFF757BF8C70CEE70000E001002005
:1012E0001C270020064900F001024A70C0F34002AA
:1012F0008A70C0F38002CA70C0F3C00008717047E2
:10130000D426002001B56846FFF70CFF08BDFEE7B4
:10131000002070470020704710B50022044905489E
:1013200005F0A8FE0449034805F09EFE002010BD0C
:10133000701E0020CC0D00207016002010B5014654
:10134000034805F091FE024805F072FE002010BD32
:10135000CC0D002010B50446F0EE403A0B4608468E
:1013600007F068FA93ED030A204684ED050ABDE80C
:101370001040B0EE630A07F05DBA0000014800F0CB
:1013800007BC0000CC0A0020014800F001BC0000AE
:101390004C0C0020014800F0FBBB00000C0A0020B0
:1013A00010B5044800F0F4FB0349012081F8000760
:1013B00010BD0000AC0C00201428002010B504481B
:1013C00000F0E6FB0349012081F8600A10BD00002F
:1013D000AC09002014280020014800F0D9BB00000F
:1013E000EC0B002010B5044800F0D2FB03490120AB
:1013F00081F8A00310BD00008C0B002014280020F1
:1014000010B5044800F0C4FB0349012081F8C00D69
:1014100010BD00006C0A002014280020014800F0D4
:10142000B7BB00000C0D0020014800F0B1BB00006C
:101430002C0B002010B5044800F0AAFB0348012142
:1014400080F8201110BD00006C0D00201438002021
:1014500001681823CAB2103AB2FBF3F2054B6FF3DE
:101460000901032A9B5CC36500D9091D81650846F3
:101470007047000000A5000810B5014600208B69E8
:101480008A6A4FF0C07453B1B3F5005F15D072B1E2
:10149000012A0CD0022A0AD0032A09D104E01AB189
:1014A000012A06D0022A03D1C96AC90100D5012048
:1014B00010BDC96AA142FAD010BD002AF7D0012A96
:1014C000F2D0022AF3D0032AF3D010BD30B504685D
:1014D000256825F480252560046863608368402BB7
:1014E000036803D099600068C26030BD9A600068EC
:1014F000C16030BD704770472DE9F0415A4D2DED68
:10150000028BF0EE408A2878AF1C4FF0FF080128CC
:101510000BD09FED568A564E564C0B280AD01F28EA
:1015200014D0FF286FD0404694E03878C0076BD0C5
:101530000B2094E004F0D2FC03F036F886ED028A2A
:1015400085ED018A84ED5B8A1F2083E04B4A4A487F
:10155000B6EE002AB2F90610D0ED001A00EE101A0D
:101560004749F8EEC00A91ED001AB0EE610A10EE9C
:10157000810A40EE021AC0ED001AB2F90830D0ED2F
:10158000010A00EE103AD1ED002AB8EEC01AB0EE12
:10159000600A11EE220A40EE020AC0ED010AB2F919
:1015A0000A2090ED021A00EE102A91ED003A35491A
:1015B000F8EEC02AB0EE410A12EE830A00EE021ADB
:1015C00080ED021AC4ED171AC4ED060A84ED281A3C
:1015D00096ED010A84ED390A96ED000A84ED4A0A77
:1015E00084ED5B8A96ED020AD5ED010A70EEC00A21
:1015F0009FED250A10EE900AC4ED5A0A884204DBDA
:1016000030EEC00A08E020E028E010EE900A1F4902
:10161000884203D330EE800A84ED5A0A1C49B0EEAA
:10162000680AA1F1CC00FFF795FE1949B0EE680AEF
:1016300044391048FFF78EFE1549B0EE680A443170
:10164000A1F1CC00FFF786FE05E004F047FC02F0B4
:10165000ABFF012028703878C00701D140462870C0
:10166000BDEC028BBDE8F081CC040020000000003E
:10167000C8260020903F002004430020A026002020
:1016800040DE0008000034430000B443000034C3CF
:10169000A040002010B55948594C00F144012DEDEF
:1016A000028BB7EE080AC4E90601CC31216280ED55
:1016B000000AE06980ED000A9FED520A206A80ED81
:1016C000000A9FED510A206A80ED010AE069B0EE40
:1016D000080A80ED070AA06980ED070A9FED4B1A02
:1016E000A1F54C70DFED4A1A9FED4A2A00F52A71E8
:1016F000B2EE0E0A81EC031A3C31FAEE0E0A81ECCE
:10170000050A80EDCA0AC0EDCB0A9FED431A80EDB1
:101710008D1A9FED421A80ED9E1A9FED411AFBEE45
:10172000041A80EDD11AE069B3EE041A9FED3D2A48
:1017300080ED0F1AC0ED101AA0699FED3B8A80ED75
:101740000F1AC0ED101A206AB6EE001AF2EE041A53
:1017500080ED0F1ABEEE001A80ED101A606AB7EE27
:10176000001A80ED051A606AC0ED001A606A80ED0B
:10177000012A606A80ED028A606A80ED0F0AC0ED7E
:10178000100A80ED0D0AC0ED0E0AA06A80ED051A60
:10179000A06AC0ED001AA06A80ED012AA06A80ED5F
:1017A000028AA06A80ED0F0AC0ED100A80ED0D0AD2
:1017B000C0ED0E0A08F012FC4FF416706082322061
:1017C000A0821A48E0601A49002000BF00EB4002E6
:1017D00001EB8202401C82ED018A0328F6DB1548EA
:1017E000016821F07F42A0F120010A60406820F0EA
:1017F0007F404860BDEC028B10BD0000B04100206E
:10180000F84400200AD7233C6F12833A6666E63E0E
:10181000B81E053E4260653C0000F04200002043D7
:101820000000A042CDCCCC3D00000000502700209D
:1018300038450020CC05002070B504462548F0EE60
:10184000001A2DED028BF7EE000A90ED020A90EDE2
:10185000031A20EE002A01EE012A42EE610A90ED01
:10186000012A22EE212A22EE000A90ED002A62EEE1
:10187000211A01EE810A07F053FD174DD5ED000A3C
:1018800020EE200A84ED020A2868FEF73DFE114E84
:1018900041EC180B1C3EB068FEF736FE41EC100B15
:1018A00007F08EFB53EC182B51EC100BFEF794FD58
:1018B000FEF73DFE6060D6ED040A96ED030A07F0E0
:1018C0002FFDD5ED000A20EE200A84ED000ABDECC4
:1018D000028B70BDD00100203CDE0008FEB5244D17
:1018E000002400BF04F13B00C1B2D02002F02AFD69
:1018F0002855641C0E2CF5DB1D49062208312C46A8
:10190000A81DFEF790FC1C48194F00211A3F9FEDBF
:10191000191AD0F804506B46A7F1300607EB4102C4
:1019200034F81100928940BA801A00B200EE100A11
:1019300006EB810223F81100F8EEC00A92ED000ACE
:1019400070EEC00A00EE810A82ED000AD2ED060AAE
:1019500030EE600A40EE010AC2ED060ABDEEE00A72
:1019600010EE100A25F81100491C0629D6DBFEBD31
:10197000BA2600209A99993EA80100202DE9F04F3F
:101980008BB0182104A8FEF775FC0025514802957C
:10199000039500950195C5634E4C0564456430344C
:1019A0004FF4006020822E46012000F067FAFFF716
:1019B00095FF761C642EF7DB4FF4C8774FF4167A48
:1019C000DFF8148140F21F36C7F10009CAF1000B9D
:1019D000D8F80800401CC8F80800022000F04EFAB1
:1019E000FFF77CFFB4F9000000F28F10B0421CD268
:1019F000B4F90200B84218DA484516DDB4F904001B
:101A0000504512DA584510DDD8F80800B0F5FA6FE5
:101A1000DEDDB4F90670B4F908C0B4F90A90D8F85C
:101A2000042002A96D464FB902E0C8F80850CFE77C
:101A3000BCF1000F02D1B9F1000FF4D05FF000004B
:101A400002EB400331F81060DB889E1B25F8106024
:101A500021F81030401C00B20328F1DBBDF9000072
:101A6000001D0828DFD8BDF90200001D0828DAD8BB
:101A7000BDF90400001D0828D5D80025FFF72EFF6A
:101A80004FF4B27704AE11E0FFF728FF642D0DDBB1
:101A9000D8F80410002000BF56F8202031F910308B
:101AA0001A4446F82020401C0628F5DB6D1C2DB298
:101AB000BD42E9DB5FF0000004EB400256F8201065
:101AC000401C091200B291810628F5DB0BB0BDE87D
:101AD000F08F000070260020A80100202DE9F041C1
:101AE0000446876D00F0C6FA064694F835000025D6
:101AF000022806D08020606584F834500120BDE8BB
:101B0000F0812068016821F01601016020684169B8
:101B100021F080014161206C08B9A06C20B12068DF
:101B2000016821F0080101602068016821F00101CD
:101B300001600BE000F09EFA801B052806D92020EA
:101B4000606504F8345F03206070D8E7206800689F
:101B5000C007EFD194F85C103F208840B86004F8CB
:101B6000345F012060700020C9E790F83510022929
:101B700003D08021416501207047052180F8351090
:101B80000068016821F00101016000207047000039
:101B90002DE9F84304464FF00009CDF80090634862
:101BA0004FF41651A56D0068B0FBF1F72E6894F85C
:101BB0005C10082000FA01F131420FD021680A6858
:101BC00052070BD50A6822F004020A6094F85C10F0
:101BD0008840A860606D40F00100606594F85C107A
:101BE0004FF0010808FA01F0304208D02168496935
:101BF000090604D5A860606D40F00200606594F8A5
:101C00005C1004208840304208D0216809688907A8
:101C100004D5A860606D40F00400606594F85C1025
:101C200010208840304218D021680968090714D56F
:101C3000A86020680168490304D50068000308D53E
:101C4000A16C07E00168C90503D4016821F008010F
:101C50000160216C09B12046884794F85C1020206F
:101C60008840304231D021680968C9062DD5A86066
:101C700094F8350005282068016806D0490347D547
:101C8000006800031DD4616C1CE021F016010160A6
:101C90002068416921F080014161206C08B9A06C85
:101CA00020B12068016821F00801016094F85C10FF
:101CB0003F208840A86084F8349084F83580216DF6
:101CC0001FE0E16B09B120468847606D00282BD0EA
:101CD000606DC00714D0052084F8350020680168C5
:101CE00021F0010101600098401C0090B84203D827
:101CF00020680068C007F6D184F8349084F83580F5
:101D0000E16C002910D001B02046BDE8F04308473F
:101D10000168C905D5D4016821F01001016084F87B
:101D2000349084F83580CCE7BDE8F883800000204B
:101D30002DE9F041044600F09DF906465CB100250E
:101D400084F83450022084F835002068016821F0BE
:101D5000010101600DE00120BDE8F08100F08AF989
:101D6000801B052805D920206065032084F83500F4
:101D7000F2E720680068C007F0D1226811682048A7
:101D80000140D4E901031843D4E90336334318432F
:101D900063691843A3691843E3691843236A184326
:101DA0000843616A042903D1D4E90B13194308439A
:101DB000106020684069666A20F0070130460E43D3
:101DC000012704280CD1A06A0643E06A40B12046EE
:101DD000FFF752FB20B14020606584F83570BAE708
:101DE000206846612046FFF733FB94F85C203F21D2
:101DF00091408160656584F835700020ACE7000093
:101E00003F8010F02DE9F0410446866D90F83400D3
:101E1000002501280DD0012084F8340094F8357095
:101E20000020012F07D084F8340002252846BDE8A1
:101E3000F0810220FBE7022784F8357060652046B8
:101E4000FFF744FB94F85C103F208840B0602068A6
:101E5000016841F0160101602068416941F080018C
:101E60004161206C20B12068016841F008010160E7
:101E70002068016841F001010160D7E770B50446B0
:101E800000F0F8F80546601C02D0044800780444CD
:101E900000F0F0F8401BA042FAD370BD740000209F
:101EA0002DE9F84FDFF87CB100224FF001084FF028
:101EB000030A4FF00F090BF1040E00BF0B6808FA7C
:101EC00002F42340A3426ED14D68022D01D0122DA1
:101ED0000ED1D50800EB850CDCF820505607F70E24
:101EE00009FA07F6B5430E69BE402E43CCF82060D0
:101EF000066855000F790AFA05FC07F0030726EA81
:101F00000C06AF40374307604E68012E05D0022E05
:101F100003D0112E01D0122E0ED18668CF6826EA8A
:101F20000C06AF40374387604668A6430C79C4F37C
:101F30000014944034434460C6688C6826EA0C065A
:101F4000AC403443C4604C68E40065D5364C256829
:101F500045F480452560246822F0030504F480449C
:101F60000094324C2E19D6F8084895072F0F09FA1D
:101F700007F5AC432E4DA84201D1002524E02D4D9C
:101F8000A84201D101251FE02B4DA84201D1022515
:101F90001AE02A4DA84201D1032515E0284DA84298
:101FA00002D1042510E037E0264DA84201D10525D5
:101FB0000AE0254DA84201D1062505E0234DA8429F
:101FC00001D1072500E00825BD402543C6F8085883
:101FD000DBF800405D464E689C43F60300D51C4389
:101FE0002C60DEF8004075464E689C43B60300D571
:101FF0001C432C600B4D08352C684E689C43F60240
:1020000000D51C432C60074D0C352C684E689C4352
:10201000B60200D51C432C60521C102AFFF44EAFB0
:10202000BDE8F88F003C01404438024000300140D8
:10203000000002400004024000080240000C024080
:10204000001002400014024000180240001C024030
:102050000069084000D001207047426931EA02025D
:1020600000D10904816170470AB181617047090498
:10207000FBE7000001488068704700007400002002
:1020800070B504001BD094F83D00002520B984F8F9
:102090003C50204600F0AEF8242084F83D00206833
:1020A000016821F00101016000F0CEFE4D4A616837
:1020B000914201D84C4900E04C49884201D20120AC
:1020C00070BD4B492368B0FBF1F15E6826F03F0616
:1020D0000E435E606368934206D94FF4967359438A
:1020E0004FF47A73B1FBF3F12368491C1E6A26F0A2
:1020F0003F06314319626168914210D84900401E81
:10210000B0FBF1F2521CC2F30B02042A01D20420EC
:1021100022E0B0FBF1F0401CC0F30B001CE0A36810
:10212000F3B301EBC10202EB0116421EB2FBF6F261
:10213000521C42F48042120549D093B301EBC10214
:1021400002EB0111401EB0FBF1F0401CC0F30B008C
:1021500040F4804040F400402168CA694CF6FF73A7
:102160009A431043C861D4E90701084321680A680B
:1021700022F0C00210430860D4E903010143206843
:10218000826848F2FF339A4311438160D4E9050124
:1021900008432168CA6822F0FF021043C86001E0CA
:1021A0000EE016E02068016841F00101016025643D
:1021B000202084F83D00256384F83E50002070BD47
:1021C00001EB4106421EB2FBF6F2521CB3E70120BE
:1021D000C2E701EB4101401EB0FBF1F0401CC0F32F
:1021E0000B00B7E7A086010080841E0000093D00B7
:1021F00040420F00F0B587B0044614216846FEF750
:1022000039F81A49206888422DD11948016841F0EF
:1022100004010160016801F004010591016841F0C9
:10222000010101600068122400F0010005904FF4E4
:1022300000700125032604278DE8F10069460D484A
:10224000FFF72EFE28028DE8F10069460A48FFF7E5
:1022500027FE07481030016841F400010160006862
:1022600000F40000059007B0F0BD0000005C0040E5
:1022700030380240000802400000024002488168F5
:102280000278114481607047740000200B4810B53B
:10229000016841F400710160016841F480610160EE
:1022A000016841F480710160032000F06FF80020A4
:1022B00000F006F800F024F8002010BD003C0240B9
:1022C00070B50D4D04464FF47A712878B1FBF0F0EB
:1022D0000A490968B1FBF0F000F096FF48B9102CEC
:1022E00007D200222146501E00F030F800206C601A
:1022F00070BD012070BD000074000020800000202F
:102300000A4808B5016841F480410160006800F4A2
:10231000804000900548001F016841F08051016035
:10232000006800F08050009008BD00004438024072
:10233000002809DB00F01F020121914040098000C4
:1023400000F1E020C0F8001170470000F0B40E4B1F
:102350001B680C46C3F30223C3F10705042D00D903
:102360000425191D072901D2002300E0DB1E0126E8
:1023700006FA05F1491E214099409E40761E1640FE
:102380003143F0BC06F009BE0CED00E0064900F058
:10239000070208684FF6FF03184040EA0220034A8C
:1023A00010430860704700000CED00E00000FA05E3
:1023B00070470068416200207047F0B50368586AB2
:1023C00039B19C6A4FF4827600EB144400204D1E14
:1023D0000AE040EA024098620FE006EB8007DF590E
:1023E000401C04EB1744C0B2A842F6D344EA0240B2
:1023F0004FF4807202EB810158500020F0BDD0F8FC
:10240000040405F0BEB8C1EBC10200EB8202D0F8B3
:102410000404926C05F011B8C1EBC10200EB82021A
:10242000D0F80404D2F8082205F06AB8D0F8040401
:1024300005F0A9B870B504460B0601F00F00C0EB1B
:10244000C00104EB81014FF001024FF0000503D5FC
:1024500081F83D203C3103E081F8FD5101F5FE712A
:10246000087094F8BC03012808D084F8BC232068C5
:1024700005F000FC84F8BC53002070BD022070BD44
:1024800070B5044601F00F006268904201D9012046
:1024900070BD0B0601F00F01C1EBC10104EB81011E
:1024A0004FF001024FF0000503D581F83D203C318B
:1024B00003E081F8FD5101F5FE718D70087094F80C
:1024C000BC03012808D084F8BC23206805F0AEFDC9
:1024D00084F8BC53002070BD022070BD01F00F01D4
:1024E000C1EBC10100EB8100D0F8140270472DE967
:1024F000F04104460F0601F00F00C0EBC00104EBF1
:1025000081014FF001064FF0000503D581F83D60D1
:102510003C3103E081F8FD5101F5FE7108708A60DD
:10252000CB704A7802B1C880022B00D10D7194F8AB
:10253000BC03012809D084F8BC63206805F0EAFADE
:10254000284684F8BC53BDE8F0810220FBE770B553
:102550000C4601F00F05C5EBC50100EB8101C1F888
:102560001032C1F808220023C1F8143281F8FD317D
:1025700081F8FC51036901F5FE71012B00D10A615C
:102580002207027C006803D005F0A8FD002070BD82
:1025900005F094FCFAE770B504460D4601F00F0013
:1025A0006168884201D9012070BD29064FF00006FC
:1025B0004FF0010207D5C0EBC00104EB810181F8A7
:1025C0003D203C3107E0C5EBC50104EB810181F8FA
:1025D000FD6101F5FE718A70087094F8BC03012852
:1025E00007D084F8BC23206805F04CFD280702D0F2
:1025F00007E0022070BD217C04F57172206805F0AF
:10260000E9FC84F8BC63002070BD70B50C4601F095
:102610000F05C5EBC50100EB81010B658A64002342
:102620004B65012381F83D3001F83C5F0369012BC4
:1026300000D10A612207027C006803D005F04EFD3C
:10264000002070BD05F03AFCFAE700002DE9FC5FC0
:1026500005680446284605F06AFE00287ED12068F9
:1026600005F091FE002879D0206805F08CFE8007E7
:1026700004D52068416901F002014161206805F03C
:1026800082FE010304F571704FF0010A4FF0080B50
:10269000009075D50026206805F054FE0746DFF847
:1026A00008946BE0F80767D0F1B2206805F063FE8C
:1026B0008046C00707D005EB4611C1F808AB31468C
:1026C000204603F009F85FEA087032D52068016CF3
:1026D00000EB46100191D0F8081B2269012A019AEB
:1026E0000FD0F24B9A4214D1090403D54FF40041A4
:1026F000C0F8081B204600F0C9FA206901280FD055
:1027000013E04A4505D9090403D54FF40041C0F848
:10271000081B204600F0BAFA01984845EDD804E0BD
:1027200020680121009A05F055FC05EB4611C1F81F
:1027300008BB5FEAC86004D505EB46111020C1F85C
:10274000080B5FEA88600ED52069012804D1206853
:102750000121009A05F03EFC202100E0A1E105EBFB
:102760004610C0F8081B5FEA884005D505EB461007
:102770004FF40051C0F8081B7F08761C002F91D140
:10278000206805F000FE40034FF000095FD5206887
:1027900005F0D1FD0746002657E0F80753D0F1B207
:1027A000206805F0D6FD8046C00726D006F00F024F
:1027B0000AFA02F0D5F834288243C5F8342805EB2C
:1027C0004610C0F808A92069012807D1C6EBC60049
:1027D00004EB8000D0E9112111448164F1B220465C
:1027E000FFF711FE2069012807D136B9206D20B905
:1027F00020680121009A05F0EDFB5FEA087003D51F
:1028000005EB4611C1F808B95FEAC86004D505EBCD
:1028100046111020C1F808095FEA486004D505EBAD
:1028200046104021C0F808195FEA887004D505EB0E
:1028300046100221C0F808195FEA086003D5314646
:10284000204602F0B7FF7F08761C002FA5D1206834
:1028500005F099FD002811DAD5F8040820F00100F0
:10286000C5F8040894F8F40301282BD0204600F0A2
:10287000F1F92068416901F000414161206805F0EB
:1028800082FD00050BD5D5F80808C00702D0204608
:1028900000F024FA2068416901F400614161206878
:1028A00005F071FDC00461D5D5F8040820F00101E0
:1028B000C5F804181021206805F01AFD00214FF614
:1028C0007F321AE084F8F49300212046FFF770FD70
:1028D000CFE700BF05EB4110C0F80829D0F8003958
:1028E00023F40013C0F80039C0F8082BD0F8003BDF
:1028F00023F40013C0F8003B491C60688842E9D803
:10290000D5F81C0840F00111C5F81C18206B0028F0
:1029100028460DD0D0F8840840F00B00C5F8840894
:10292000D5F8440840F00B012846C5F844180DE0DE
:10293000D0F8140842F22B010843C5F81408D5F862
:10294000100840F00B012846C5F81018D0F8000810
:1029500020F4FE61C5F80018217C2068009A05F07B
:1029600039FB2068416901F480514161206805F01C
:102970000AFD800415D5206805F00CF9206805F0E3
:10298000C9FCE06000F05AFA0146227B206805F09D
:1029900035FD204600F048F92068416901F40051F6
:1029A0004161206805F0EFFCC00634D520688169DC
:1029B00021F0100181612F6A07F00F00C0EBC00009
:1029C00004EB8006C7F3434006F5FE76022802D0EA
:1029D000062811D01AE047F6F070074216D0C7F368
:1029E0000A1217462846F16805F0D1FCF068384411
:1029F000F060B069384408E008222846009905F0E4
:102A0000C6FCB069C7F30A110844B061216888693F
:102A100040F010008861206805F0B5FC000707D57C
:102A2000204600F01BF92168486900F00800486161
:102A3000206805F0A8FCC00208D50021204600F05F
:102A400037F82168486900F480104861206805F073
:102A50009AFC800208D50021204600F02DF821685C
:102A6000486900F400104861206805F08CFC4000C3
:102A700007D52046FFF7C3FC2068416901F080417B
:102A80004161206805F07FFC40070AD52068456851
:102A9000680702D52046FFF7C9FC20684168294332
:102AA0004160BDE8FC9F00000A30544F0A31544F8A
:102AB000D0F8040404F0B6BDD0F8040404F0B4BDAA
:102AC0002DE9F0418AB0040005D094F8BD032668D2
:102AD000002520B108E001200AB0BDE8F08184F8AB
:102AE000BC53204600F05EF8032084F8BD03F06B71
:102AF000C00500D42561206805F0DAF904F1100161
:102B0000282288466846FDF78EFB94E80F0005F002
:102B10005BF80226C8BB0021206805F046FC0020B7
:102B200001270EE0C0EBC00104EB810181F83D708C
:102B300001F83C0FC880CD708D60CD60401CC0B2E4
:102B40004D6161688142EDD8002011E0C0EBC00109
:102B500004EB810181F8FD5181F8FC0181F8FF51FE
:102B6000C1F80452C1F80852401CC0B2C1F810525A
:102B700061688142EAD8282241466846FDF753FB46
:102B800094E80F0005F0CEF810B184F8BD63A2E719
:102B900084F8385084F8BD73206805F0B7F8002039
:102BA0009AE7000010B586B0044614216846FDF788
:102BB00061FB2068B0F1A04F2FD1194800210268B5
:102BC00042F001020260006800F0010005904FF43D
:102BD000C05000900220CDE90101032003900A209B
:102BE000049069460F48FFF75BF90D48001D016826
:102BF00041F0800101600A481430016841F48041CD
:102C000001600068002200F48040059011464320D6
:102C1000FFF79CFB4320FFF78BFB06B010BD0000C5
:102C2000303802400000024070B50446C0680125FB
:102C300070B1022801D0FEF75EFC2946D4F80404E6
:102C400004F043FDD4F80404BDE8704004F003BD73
:102C50000025F2E7D0F8040404F025BDD0F8040400
:102C600004F027BD10B5044690F8BC0301280BD032
:102C7000012084F8BC0384F83810206805F0ACFB10
:102C8000002084F8BC0310BD022010BDD0F804243D
:102C900000F57171104604F024BD10B504460068BB
:102CA00094F8BC13012906D0012184F8BC13A16A51
:102CB000012902D008E0022010BDA169012903D03A
:102CC000816B41F480318163206805F013F820683E
:102CD00005F0F8FA002084F8BC0310BD10B50446D6
:102CE000D0F8040404F03CFD2068D0F8001E41F048
:102CF0000101C0F8001E206A002804D002480168C3
:102D000041F00601016010BD10ED00E02DE9F04733
:102D10000E46050065D0DFF81481D8F80000F7B240
:102D200000F00F00B04207D288F80070D8F8000019
:102D300000F00F00B04254D128683D4C810712D5F5
:102D4000400703D5206840F4E05020602878000751
:102D500003D5206840F4604020602068A96820F016
:102D6000F000084320602878C0072DD030496868FB
:102D70000839012812D0022813D0032811D009687D
:102D8000890700292DDA216821F003010143216020
:102D9000FFF770F9814641F2883A0EE0096889032D
:102DA000EFE709688901ECE7FFF764F9A0EB090197
:102DB000514502D90320BDE8F0872068696800F01A
:102DC0000C00B0EB810FEFD1D8F80010404601F0B5
:102DD0000F01B14207D90770006800F00F00B04240
:102DE00001D00120E7E72878400705D52068E96889
:102DF00020F4E050084320602878000706D52068BA
:102E0000296920F4604040EAC100206000F03CF8ED
:102E10002168084AC1F30311515CC84006490860A3
:102E20000020FFF74DFA0020C5E70000003C0240FB
:102E30000838024008A5000880000020014800680A
:102E400070470000800000200448054900680968B8
:102E5000044AC1F38221515CC840704780000020C1
:102E60000838024018A500080448054900680968A8
:102E7000044AC1F34231515CC840704780000020D1
:102E80000838024018A50008154810B5006810F071
:102E90000C02144813D01449042A0FD0082A0ED16A
:102EA0000F4C241F2268236802F03F025B0207D503
:102EB0002068C0F38810A0FB010106E0084610BDA1
:102EC0002168C1F38811A1FB00010023FDF77AF905
:102ED0002168C1F30141491C4900B0FBF1F010BD6C
:102EE000083802400024F40040787D012DE9F84FB5
:102EF000050076D02878DFF8F8B2BE4CC00749D07C
:102F0000DBF800105846C1F38101012908D00068A0
:102F1000C0F3810002280AD1201D0068400206D5B6
:102F20002068800336D568680028E2D032E06868FF
:102F3000B0F5803F10D0B0F5A02F206810D020F45D
:102F400080302060206820F4802020606868A0B174
:102F5000FFF790F806460CE0206840F48030F4E774
:102F600040F480202060F7E7FFF784F8801B642896
:102F700073D820688003F7D50CE0FFF77BF806468E
:102F800005E000BFFFF776F8801B6428F0D82068C2
:102F90008003F7D42878DFF8608280074FF00009BB
:102FA0003ED5DBF80010584611F00C0F09D0006830
:102FB000C0F3810002280BD18D48001F0068400239
:102FC00006D42068800715D5E868012809D111E0EA
:102FD000E868B8B10120C8F80000FFF74BF80646D2
:102FE00005E002E1FFF746F8801B0228C0D8206800
:102FF0008007F7D52068296920F0F80040EAC10071
:1030000020600DE0C8F80090FFF734F8064604E0B1
:10301000FFF730F8801B02281FD820688007F7D4FC
:103020002878000722D5724E744869696C3671B1F0
:1030300001210160FFF71EF8074604E0FFF71AF8C8
:10304000C01B022809D830688007F7D50EE0C0F809
:103050000090FFF70FF8074605E083E0FFF70AF856
:10306000C01B02287ED830688007F7D42878400734
:1030700068D5DFF87CA100270AF1380ADAF80000E9
:10308000C0000BD4DAF8001041F08051CAF80010EB
:10309000DAF80000012700F080500090584E3068A8
:1030A000C00510D4306840F480703060FEF7E2FF55
:1030B000009005E0FEF7DEFF0099401A022851D883
:1030C0003068C005F6D54A4EA868683601280FD08A
:1030D0000528306810D020F001003060306820F002
:1030E00004003060A868B8B1FEF7C4FF00900FE09C
:1030F000306840F00100F4E740F004003060F7E78A
:10310000FEF7B8FF0099411A41F28830814264D835
:1031100030688007F4D50EE0FEF7ACFF009007E0C2
:10312000FEF7A8FF0099411A41F28830814254D835
:1031300030688007F4D42FB1DAF8001021F0805104
:10314000CAF80010A869C0B3DBF80010C1F3810110
:1031500002294AD00228484607D0C8F86000FEF786
:1031600089FF00E039E005463AE04746C8F86000CC
:10317000FEF780FF064604E0FEF77CFF801B022876
:103180002BD820688001F7D4D5E907010843A96A44
:103190001C4A490802EB01416A6A41EA821108436C
:1031A00095F82C1040EA01611148001F01600120D0
:1031B0003866FEF75FFF054605E014E0FEF75AFFAC
:1031C000401B022809D820688001F7D50BE000BF1A
:1031D000FEF750FF401B022802D90320BDE8F88FFC
:1031E00020688001F4D40020F8E70120F6E7000011
:1031F000083802400038024000004742800E474233
:10320000007000400000FFFF10B5401EB0F1807F4D
:1032100001D3012010BD4FF0E02460610F21601741
:1032200005F0BBFE0020A06107202061002010BD3A
:103230007047704710B590F83C20012A22D0012237
:1032400080F83C20CA688C6822F4407222434C68A3
:1032500022F4806222430C6822F4006222430C694B
:1032600022F4805222434C6922F400522243C9695D
:10327000002322F480420A4301684A6480F83C300B
:10328000002010BD022010BD70B590F83C20012A2E
:1032900019D0012400F83C4F0222427050F83C3C07
:1032A0005A689D6822F070060A684968324325F022
:1032B000800529435A6050F83C2C916044700021ED
:1032C0000170084670BD022070BD10B5040003D027
:1032D00094F83D0010B107E0012010BD002084F8F3
:1032E0003C00204600F00CF8022084F83D00211D2F
:1032F000206802F0D3FE012084F83D00002010BDBC
:1033000008B5154A0168154891420ED1016841F08F
:10331000020101600068002200F0020000901146E6
:103320001D20FFF713F81D2010E00D4A914211D126
:10333000016841F0040101600068002200F004000F
:10334000009011461E20FFF701F81E20BDE808403E
:10335000FEF7EEBF08BD0000000400404038024008
:1033600000080040022180F83D1001688A6802F0E0
:103370000702062A03D00A6842F001020A6001210E
:1033800080F83D10002070470168CA6842F00102D1
:10339000CA600068816801F00701062903D001684E
:1033A00041F0010101600020704770B5044690F8BB
:1033B0003C00012817D0012584F83C50022084F8F5
:1033C0003D002068826822F0770222F47F4282600A
:1033D0000868502830D00DDC20284DD005DC98B38B
:1033E00010283BD148E0022070BD302844D040284E
:1033F00034D139E0602828D0702806D0B0F5805F3D
:103400002CD0B0F5005F29D10AE0CB68D1E90121C9
:10341000206802F0B4FE2068816841F0770109E07D
:10342000CB68D1E90121206802F0A9FE20688168FB
:1034300041F48041816011E0CA684968206802F067
:1034400073FF5021206807E016E0CA6849682068C9
:1034500002F07BFF6021206802F09BFE84F83D5063
:10346000002084F83C0070BDCA684968206802F0FA
:103470005BFF40212068EFE7226801461046EBE73A
:10348000704770B50446006801694FF00005C943F4
:10349000890715D4C168C943890711D4E91E0161A0
:1034A00001202077206880698007204602D0FFF73E
:1034B000E7FF04E000F0EAF8204600F085F9257700
:1034C00020680169C943490717D4C168C94349073E
:1034D00013D46FF004010161022020772068806915
:1034E00010F4407F204602D0FFF7CAFF04E000F04E
:1034F000CDF8204600F068F9257720680169C943B6
:10350000090716D4C168C943090712D46FF008012E
:103510000161042020772068C0698007204602D01E
:10352000FFF7AEFF04E000F0B1F8204600F04CF9E0
:10353000257720680169C943C90617D4C168C94302
:10354000C90613D46FF010010161082020772068AC
:10355000C06910F4407F204602D0FFF791FF04E0DD
:1035600000F094F8204600F02FF9257720680169D3
:10357000C943C90708D1C168C943C90704D1891E15
:103580000161204600F044F920680169C943090639
:1035900009D4C168C943090605D46FF080010161EF
:1035A0002046FFF745FE20680169C943490609D452
:1035B000C168C943490605D46FF040010161204646
:1035C00000F027F920680169C94389060BD4C16856
:1035D000C943890607D46FF0200101612046BDE888
:1035E0007040FFF726BE70BD70B586B0044614214A
:1035F0006846FCF73FFE204A216800241F48022548
:10360000012691420FD1016841F01001016000686C
:10361000694600F0100005904FF4D4400090CDE9C9
:103620000154174822E0B1F1804F23D1016841F0E5
:1036300001010160016801F001010591016841F09B
:103640000201016000680095CDE9015400F002001C
:10365000CDE90460694603940A48FEF721FC4FF463
:1036600040600090CDE9015407486946CDE9034622
:10367000FEF716FC06B070BD000001403038024075
:10368000001002400000024000040240704770B584
:10369000044690F83C000D4601280DD0012684F820
:1036A0003C60022084F83D0042B1042A18D0082A68
:1036B0002AD00C2A4DD139E0022070BD206802F0DA
:1036C00071FD2068816941F008018161206881698C
:1036D00021F004018161206881692A69114311E0A8
:1036E000206802F08FFD2068816941F400618161EA
:1036F0002068816921F480618161206881692A697B
:1037000041EA0221816124E0206802F0B1FD2068D5
:10371000C16941F00801C1612068C16921F004015B
:10372000C1612068C1692A69114311E0206802F073
:10373000D3FD2068C16941F40061C1612068C1699D
:1037400021F48061C1612068C1692A6941EA0221CE
:10375000C16184F83D60002084F83C0070BD10B564
:10376000040003D094F83D0010B107E0012010BD23
:10377000002084F83C00204600F00CF8022084F879
:103780003D00211D206802F089FC012084F83D00E5
:10379000002010BD08B500680949884201D10948D8
:1037A00004E0B0F1804F09D10648001F016841F0E4
:1037B00001010160006800F00100009008BD0000F8
:1037C00000000140443802407047000010B5044634
:1037D0000068012202F0C6FC0B492068884202D032
:1037E0000A49884203D1416C41F400414164206898
:1037F000816801F00701062903D0016841F0010149
:103800000160002010BD00000000014000040140E4
:103810007047704710B504460068416994F8392034
:10382000C1F3C011212A0BD151B1416921F08001AE
:103830004161206B08B1FEF751F9204602F008FF04
:103840002068416994F83A20C1F38011222A0BD1F3
:1038500051B1416921F040014161606B08B1FEF74F
:103860003DF9204602F0E6FE002010BD7047000042
:1038700070B5026804461068D168536910F00F0FE4
:1038800050D003F0010501F4907635435DD0C207B6
:1038900005D0CA0503D5E26B42F00102E26342079C
:1038A00005D5DA0703D0E26B42F00202E263820739
:1038B00005D5DA0703D0E26B42F00402E2630207A7
:1038C00005D5DA0703D0E26B42F00802E263E26B4F
:1038D000002A33D0800604D5880602D5204602F09F
:1038E000C0FE20684069E16BC0F38010090700D476
:1038F00028B3204602F09EFE2068416949061AD589
:10390000416921F040014161606BA0B11B49016533
:10391000606BFEF72AF9002810D0606B016DBDE8DE
:1039200070400847830610D58B060ED52046BDE8AB
:10393000704002F096BE2046FFF798FF70BD20460B
:10394000FFF794FF0020E06370BD030606D50B0669
:1039500004D52046BDE8704003F024B84006F3D5F6
:103960004806F1D5D168204621F04001D1602021E0
:1039700084F8391000F08AFB70BD00005D65000816
:1039800070B5040004D094F83900002510B106E0A9
:10399000012070BD84F83850204600F023F8242020
:1039A00084F839002068C16821F40051C1602046C4
:1039B00002F0A2FE2068016921F4904101612068B3
:1039C000416921F02A0141612068C16841F4005138
:1039D000C160E563202084F8390084F83A000020B3
:1039E00070BD00002DE9F04F87B0044614216846F1
:1039F000FCF740FCFF48DFF8F8831038D4F800C02B
:103A0000FC4B022101270322002506154FF0080B6D
:103A10004FF0400A4FF00069C4456CD1D3F800C0A4
:103A20004CF4002CC3F800C01B6803F4002305937A
:103A3000036843F001030360036803F00103059387
:103A4000036843F0040303600068CDF810B000F091
:103A500004000590480200900DF1040C02209046ED
:103A60005E468CE88101DFF890B369465846FEF760
:103A700017FAF80200900DF1040C022004968CE86D
:103A8000810169465846FEF70BFADD4EDB484F468A
:103A900086E881040015C6E903507561B561F561DA
:103AA000356230467562FEF743F908B1FDF723FD34
:103AB000D34DD248266360353038B463C5E900077A
:103AC00000204FF48061A860C5E903018910686196
:103AD000C5E90601286268622846FEF729F908B19F
:103AE000FDF709FD6563002211463420AC63FEF743
:103AF0002DFC342069E0DFF80C83C4456AD1D3F88B
:103B000000C04CF4801CC3F800C01B6803F4801391
:103B10000593036843F004030360036803F00403A0
:103B20000593036843F0080303600068904600F0C3
:103B3000080005904FF48050009002200190012071
:103B4000CDE902025F466946CDF810B0AA48FEF7FB
:103B5000A7F904200090022001900120CDE902087D
:103B600069460497A848FEF79BF9A54FA348C037BC
:103B70004830C7E903567D61BD61FD613D627D62EC
:103B800087E801063846FEF7D3F808B1FDF7B3FC25
:103B90002763BC6399489D4F60383860C7E9019539
:103BA000C7E903567D61BD61FD613D6238467D62B6
:103BB000FEF7BEF808B1FDF79EFC676300221146D0
:103BC0003520BC63FEF7C2FB3520FEF7B1FB07B022
:103BD000BDE8F08FDFF838824FF0070EC44539D1C9
:103BE000844B1B1DD3F800C04CF0100CC3F800C070
:103BF0001B6803F010030593036843F0010303609F
:103C0000006800F0010005904FF4C0608DE883006B
:103C1000CDE9032E69467F48FEF742F97B4F7E4887
:103C200060373860C7E90195C7E903567D61BD611A
:103C3000FD613D6238467D62FEF77AF808B1FDF716
:103C40005AFC6763002211462520BC63FEF77EFB09
:103C50002520BAE7DFF8C481C4455ED1D3F800C09F
:103C60004CF4003CC3F800C01B6803F40033059318
:103C7000036843F001030360006800F00100059051
:103C80000C208DE88300CDE9032E69466148FEF7DC
:103C900007F9DFF87881594908F1C008404630310A
:103CA000C0E90356C8F81450C8F81850C8F81C509A
:103CB0004F46C8F8205088E88204C8F82450FEF720
:103CC00037F808B1FDF717FCC4F83080C8F8384061
:103CD0004A49DFF84C8118314046C8F80010C0E965
:103CE0000175C0E90356C8F81450C8F81850C8F850
:103CF0001C50C8F82050C8F82450FEF719F808B135
:103D0000FDF7F9FBC4F83480002211462620C8F8DC
:103D10003840FEF71BFB262057E7DFF80881C44533
:103D20004ED1D3F800C04CF4802CC3F800C01B68FF
:103D300003F480230593036843F0080303600068DD
:103D400000F0080005904FF440708DE88300CDE945
:103D5000032E69462C48FEF7A3F8314F27486037F9
:103D600048383860C7E90195C7E9035680157D6179
:103D7000C7E906503D6238467D62FDF7D9FF08B1BC
:103D8000FDF7B9FB6763BC63254F1C48C037183883
:103D9000C7E903567D61BD61FD613D627D6287E8D3
:103DA00001063846FDF7C4FF08B1FDF7A4FB276301
:103DB000002211462720BC63FEF7C8FA272004E73B
:103DC000194B9C457FF403AF0A4B1B1DD3F800C071
:103DD0004CF0200CC3F800C01B6803F020030593CF
:103DE000036843F004030360006800F004001DE072
:103DF000004C004040380240000802407060024021
:103E0000AC09002000500040000C0240CC0A002009
:103E100000100140000002404064024000440040A5
:103E2000EC0B002000480040001401400590C02029
:103E30008DE88300CDE9032B69461B48FEF730F877
:103E40001B4F1A484FF020683860C7E90185C7E961
:103E5000035680157D61C7E906503D6238467D6294
:103E6000FDF766FF08B1FDF746FB6763BC63104FC3
:103E70000E4860377830C7E903567D61BD61FD614A
:103E80003D627D6287E801053846FDF751FF08B1C4
:103E9000FDF731FB2763002211464720BC63FEF784
:103EA00055FA472091E600000008024028640240CD
:103EB0000C0D0020F8B5044690F83A0020283CD1BB
:103EC000C1B3BAB394F83800012836D0012084F881
:103ED0003800A162A2850025E563222084F83A001B
:103EE000636B1748D863636B16481864636B164896
:103EF000D864606B134605650846666B2168024608
:103F00003046091DFDF77EFF206801684168009179
:103F100084F83850C16841F48071C16020684169FB
:103F200041F0010141612068416941F04001416176
:103F30000020F8BDFFE70120FBE70220F9E70000C1
:103F4000B7650008F36500086D65000870477047A5
:103F50002DE9F843044690F839001F4616460D46F1
:103F6000202850D1A5B19EB194F8380001284AD03C
:103F7000012084F838004FF00008C4F83C8021206C
:103F800084F83900FEF776F8A6848146E68426E0B8
:103F90000120BDE8F883E08C401EE084A0684B4619
:103FA000B0F5805F4FF000024FF08001204600978F
:103FB00003D002F028FDE8B90DE002F024FDC8B9F5
:103FC00028882168C0F308004860206908B16D1C8A
:103FD00005E0AD1C03E0216815F8010B4860E08C9A
:103FE0000028D8D14B46002240212046009702F0FD
:103FF0000AFD08B10320CCE7202084F8390084F8BA
:1040000038800020C5E70220C3E7000070B50446F1
:1040100090F83900202830D169B362B394F83800A1
:1040200001282AD0012084F838002162A284E28489
:104030000025E563212084F83900236B1048D863FC
:10404000236B10481864236B0F48D864206B134609
:1040500005652668206B321DFDF7D4FE21686FF0E0
:104060004000086084F838502068416941F08001C0
:104070004161002070BD012070BD022070BD0000B4
:10408000FD6500082B6600086D65000870477047E5
:1040900008B502F059FD01F001FB05F05DFE01F0ED
:1040A000DBFBFDF7F7FA05F00BFC01F003FF05F071
:1040B000B1FE00F04BFE00F03DFE0A48FFF764F948
:1040C00000F0E0FB48F2304000210090B423A02231
:1040D000084600F0B7FB05F05FFC034901200870BB
:1040E00008BD0000EC07002068020020FEE7000089
:1040F0002DE9F0417D4C7F4D2DED068BB0EE408AD1
:104100006068808800EE100AA069B8EE400A80ED71
:10411000060A6068408800EE100AE069B8EE400ABE
:1041200080ED060A6168888800EE100A7048B8EED3
:10413000400AD0ED000A30EE600A85EDB00A4A88E8
:10414000D0ED010A00EE102AB8EE400A30EEC00AA7
:1041500085EDC10A8A8800EE102AB8EE400A80ED8B
:10416000000A498800EE101AB8EE400A80ED010AF4
:10417000B0EE480AE06904F05DFBB0EE480AA069C1
:1041800004F058FBA06990ED030A85EDAF0AE069E1
:1041900090ED030A05F53B70B1EE400A85EDC00ACB
:1041A000B0EE480A04F046FBB0EE480A05F52A7066
:1041B00004F040FB4E4E20363068FCF7A5F99FED29
:1041C0004E9B53EC192BFCF707F995EDAD0A41EC2A
:1041D000180BB1EE400A10EE100AFCF795F99FEDAE
:1041E00048AB53EC1A2BFCF7F7F853EC182BFCF701
:1041F0004CF8FCF79CF908EE100AA6F1080787EDC9
:10420000008A7068FCF780F953EC192BFCF7E4F88E
:1042100041EC190BD5F8F802FCF776F953EC1A2BA0
:10422000FCF7DAF853EC192BFCF72FF8FCF77FF9C1
:1042300000EE900AB0EE480AC7ED010A05F0F4FF5F
:1042400097ED000A86ED000A97ED010A86ED010A56
:10425000A06990ED040A05F081FA10EE101A2A48C0
:1042600081423FDAE16991ED040A05F077FA10EE38
:10427000101A814236DA9FED258AB0EE480A05F021
:10428000B9FE05F0C5FFA6F144008178012929D1C6
:1042900094ED0B0A30EE480A05F060FA10EE101AA1
:1042A0001B4A914202DA4189491E418181780129E4
:1042B00018D14189002915D10169002912D0491E60
:1042C00001611449D1F80920130A094A1032136018
:1042D000C968090A5160104A40F2DC5112689163C2
:1042E00000218170BDEC068BBDE8F081F844002010
:1042F000A4050020903F0020666666666666E63F7D
:10430000333333333333D33F0000C8420000C84255
:104310000000A0407D3F00206C0700200848016895
:1043200021F440410160016841F48041016001686D
:1043300021F440510160016841F4805101607047EF
:104340000004024030B50D46044600F0E5F8204672
:1043500000F0B2F800F030F8284600F0ADF800F0B8
:104360002BF800F0D9F8601C00F0A6F800F024F853
:1043700000F04CF80446002000F06EF800F0F2F86F
:10438000E0B230BD30B514460D46034600F0C4F827
:10439000184600F091F800F00FF8284600F08CF86D
:1043A00000F00AF8204600F087F800F005F8BDE8B4
:1043B000304000F0D7B80000124810B5016821F471
:1043C000404101600F4C1434206840F040002060F0
:1043D0000D4B211F0AE01878401CC0B21870052848
:1043E00004D900F0BFF80020187002E00868000649
:1043F000F1D4206820F040002060BDE8104001208A
:1044000005F0E4B9000402400C02002030B5114868
:104410000023016821F4404101600E4A082414324F
:10442000151F11E0106840F0400010605806030EA0
:104430002868000601D543F00103106820F0400011
:104440001060012005F0C2F9641EE4B2EAD21846F9
:1044500030BD00000004024010B5164B0446186839
:1044600040F480401860134A1432106820F0400075
:104470001060012005F0AAF91068C4B120F0800096
:104480001060012005F0A2F9106840F040001060B3
:10449000012005F09BF9106820F040001060012019
:1044A00005F094F9186820F44040186010BD40F001
:1044B0008000E5E70004024030B5164B044618685A
:1044C00040F480401860134A082514321AE0200690
:1044D000106802D540F0800001E020F080001060FC
:1044E0006400012005F072F9106840F0400010608F
:1044F000012005F06BF9106820F0400010600120E9
:1045000005F064F96D1EEDB2E1D2186820F4404068
:10451000186030BD00040240114800B5016841F444
:10452000804101600E4A1432106840F08000106033
:10453000106840F040001060012005F047F9106855
:1045400020F080001060012005F040F9106820F094
:104550004000106001205DF804EB05F037B9000061
:10456000000402400F4800B5016841F48041016039
:104570000C4A1432106820F040001060106820F0DF
:1045800080001060012005F021F9106840F0400023
:104590001060012005F01AF9106840F080001060EA
:1045A00000BD0000000402400648B7EE000A80ED9E
:1045B000000A9FED050A80ED010A80ED020A80EDF8
:1045C000030A7047D001002000000000F0B500236E
:1045D0000A24302537261F4611E000BFB4EB107FB8
:1045E00002D905EB107C01E006EB107C01F813C04A
:1045F00001EB430C00015B1C8CF80170DBB29342B1
:10460000ECD3F0BD2DE9F0476C4C2DED028B2078FA
:1046100000287DD04FF0000984F800906068401CAD
:104620000321B0FBF1F2606001FB120028B99FED9D
:10463000640AFCF761FF00F01DFF2079400702D1FA
:104640006048FDF7F9F860680B21B0FBF1F201FB5F
:10465000120010B90B20FCF755FE60680A25B0FB6C
:10466000F5F105FB110048B99FED578AB0EE480AF5
:1046700004F076F8B0EE480A05F0CEFC606814212C
:10468000B0FBF1F201FB120088B99FED508AB0EE49
:10469000480A04F08FFBB0EE480A04F0FDFAB0EED1
:1046A000480AFCF723F9B0EE480A01F01DF96068EA
:1046B000B0FBF5F105FB110020B901F035FA00203F
:1046C00005F098F960684FF4AF71B0FBF1F201FBAF
:1046D0001200E8BB3E4961203E4E3F4F08703068F3
:1046E000D7F80920C0EB1220344A0832136860F36F
:1046F00017030020C2F8003012F800C001EB0008D8
:10470000401CC0B288F801C00328F5D3706800E0EF
:1047100050E0FE68C0EB162060F317030020136022
:10472000165C0F18401CC0B23E710328F8D32B4E04
:10473000306860F3170300201360175C01EB000C76
:10474000401CC0B28CF807700328F6D3706800E0F4
:1047500014E060F3170300201360135C0E18401C74
:10476000C0B2B3720328F8D30D2048738D734FF491
:10477000FA630F2216491A48FFF7EAFB60684FF404
:104780007A71B0FBF1F201FB120028B91549C1F8AA
:1047900000901549C1F8009005F05AFE01F0EEF9BD
:1047A00001F04EFA04F0E8FFBDEC028BBDE8F047E3
:1047B00005F0E8BABDEC028BBDE8F08700000020F0
:1047C000A69B443BC82600200AD7233C0AD7A33C1B
:1047D000C8060020AC0500207D3F0020B405002065
:1047E0002C080020EC010020F00100202DE9F04110
:1047F00007461C4615460E462A2000F05BFA7F1C31
:10480000B8B200F04CFA6D1CA8B200F048FA2B20A8
:1048100000F050FA1A36B0B200F041FA1A34A0B2E1
:1048200000F03DFABDE8F0412C2000F043BA10B58D
:1048300014460B460246FFF7D9FF2046BDE810405C
:1048400000F02DBA2DE9F04780461F46581E83B26E
:104850001646501E82B20C464046DDF82090FFF707
:10486000C5FF0AE0454604E0484600F018FA6D1C12
:10487000ADB2B542F8D3641CA4B2BC42F2D3BDE8D9
:10488000F087000010B5934C002240212046FDF730
:10489000EBFB6420FDF7F2FA012240212046FDF7F0
:1048A000E3FB6420FDF7EAFA012210212046FDF720
:1048B000DBFB6420FDF7E2FA112000F0FBF9782021
:1048C000FDF7DCFAB12000F0F5F9052000F006FA5A
:1048D0003C2000F003FA3C2000F000FAB22000F087
:1048E000E9F9052000F0FAF93C2000F0F7F93C2046
:1048F00000F0F4F9B32000F0DDF9052000F0EEF946
:104900003C2000F0EBF93C2000F0E8F9052000F035
:10491000E5F93C2000F0E2F93C2000F0DFF9B4209A
:1049200000F0C8F9032000F0D9F9C02000F0C2F966
:10493000AB2000F0D3F90B2000F0D0F9042000F0F8
:10494000CDF9C12000F0B6F9C52000F0C7F9C220AA
:1049500000F0B0F90D2000F0C1F9002000F0BEF920
:10496000C32000F0A7F98D2000F0B8F96A2000F00C
:10497000B5F9C42000F09EF98D2000F0AFF9EE20CB
:1049800000F0ACF9C52000F095F90F2000F0A6F971
:10499000E02000F08FF9072000F0A0F90E2000F0D1
:1049A0009DF9082000F09AF9072000F097F91020EF
:1049B00000F094F9072000F091F9022000F08EF940
:1049C000072000F08BF9092000F088F90F2000F093
:1049D00085F9252000F082F9362000F07FF90020CB
:1049E00000F07CF9082000F079F9042000F076F955
:1049F000102000F073F9E12000F05CF90A2000F0CB
:104A00006DF90D2000F06AF9082000F067F9072021
:104A100000F064F90F2000F061F9072000F05EF962
:104A2000022000F05BF9072000F058F9092000F09F
:104A300055F90F2000F052F9252000F04FF93520EC
:104A400000F04CF9002000F049F9092000F046F987
:104A5000042000F043F9102000F040F9FC2000F0A1
:104A600029F9802000F03AF93A2000F023F90520D6
:104A700000F034F9362000F01DF9782000F02EF90E
:104A8000212000F017F9292000F014F92A2000F065
:104A900011F9002000F022F91A2000F01FF900207F
:104AA00000F01CF9692000F019F92B2000F002F940
:104AB000002000F013F9012000F010F9002000F0B0
:104AC0000DF9A02000F00AF9BDE810402C2000F0FC
:104AD000F1B80000000C02402DE9FF4F81B0044600
:104AE000DDF83C9000904FEA59074FF00008780736
:104AF00000D0012000EBD70000FB09FB203AD0B228
:104B00000390029802994844401E83B2E019401E67
:104B100082B22046FFF76AFE002553E0B9F10C0F80
:104B20002AD0B9F1100F2ED0B9F1180F2ED0B9F14B
:104B3000200F49D12749039801EB8010002610F877
:104B400005A0109800284FF0010000FA06F000EAD6
:104B50000A0022D020B12046049A0299FFF767FE8E
:104B6000641C0098A4B2201AB84225D10298009C77
:104B7000401C80B2029023E00398174900EB4000EC
:104B800001EB8000DAE71549039803E00398144924
:104B900000EB400001EB0010D0E708B1049800E002
:104BA0000E9800F07CF808F10100C0B2B0FBF7F1FC
:104BB000804607FB118050B1761CF6B2082EC0D398
:104BC0006D1CADB25D45A9D305B0BDE8F08F4FF0C7
:104BD0000008F5E754C1000820A5000894A90008C2
:104BE00084AF00082DE9FF4F83B00026DDE9128A6B
:104BF0001D4681464FEA58073446DDF844B02CE0A4
:104C0000281B401EC1B20A2005F09EF80599B1FB91
:104C1000F0F00A21B0FBF1F201FB120026B9691E87
:104C20008C4201DA58B101263030CDF800B0C2B262
:104C3000CDE9018A04FB079080B2109B08E0CDF813
:104C400000B0CDE9018A04FB0790109B80B22022BE
:104C50000499FFF741FF641CE4B2AC42D0D307B023
:104C6000BDE8F08F2DE9FE4F9946DDE90D6714464A
:104C70008A460546DDF830800CE0CDF800804B46D2
:104C800051462846CDE90167FFF726FF05EB5600A0
:104C900085B2641C2278002AEFD1BDE8FE8F10B5E2
:104CA0000446000A00F01AF8E0B2BDE8104000F037
:104CB00015B8000070B5084C05460022802120463A
:104CC000FDF7D2F9284600F009F82046BDE870400B
:104CD00001228021FDF7C8B9000C024070B5144EC6
:104CE0000546002220213046FDF7BEF900240022AF
:104CF00010213046FDF7B8F9280601D5012200E061
:104D0000002208213046FDF7AFF90122102130467C
:104D1000FDF7AAF96806641C050EE4B2082CE6D378
:104D20003046BDE8704001222021FDF79DB900000A
:104D300000040240044802210122C1708270817186
:104D400001714171704700009E0100202DE9F04182
:104D5000FFF7E4FA264C0027264E67763D4675217C
:104D6000D020FFF7EFFA30706420FDF787F86D1C54
:104D7000052DF4DB3078682803D027760020BDE8C5
:104D8000F0810125657680226B21D020FFF7FAFAA9
:104D90003220FDF773F82A461921D020FFF7F2FAE6
:104DA0000520FDF76BF8032632466B21D020FFF774
:104DB000E9FA0520FDF762F832461A21D020FFF704
:104DC000E1FA0520FDF75AF8182632461B21D020BB
:104DD000FFF7D8FA32461C21D020FFF7D3FA05207E
:104DE000FDF74CF8FCF7CAFD25760120C7E7000067
:104DF000A0260020A8010020314808B5016841F430
:104E000000110160016801F400110091016841F492
:104E1000800101600068002200F4800000901146CB
:104E20000B20FDF793FA0B20FDF782FA00221146C2
:104E30000C20FDF78BFA0C20FDF77AFA00221146C0
:104E40000D20FDF783FA0D20FDF772FA00221146BE
:104E50000E20FDF77BFA0E20FDF76AFA00221146BC
:104E60001020FDF773FA1020FDF762FA00221146B8
:104E70001120FDF76BFA1120FDF75AFA00221146B6
:104E80002F20FDF763FA2F20FDF752FA002211467A
:104E90003920FDF75BFA3920FDF74AFA0022114666
:104EA0003A20FDF753FA3A20FDF742FA0022114664
:104EB0004520FDF74BFABDE808404520FDF738BA1C
:104EC000303802402DE9F04F87B014216846FBF7D7
:104ED000D1F959480024016841F0100101600168CE
:104EE00001F010010591016841F080010160016845
:104EF00001F080010591016841F001010160016844
:104F000001F001010591016841F0020101600168B1
:104F100001F002010591016841F00801016001689A
:104F200001F008010591016841F004010160006889
:104F3000DFF808A100F0040005900022602150462F
:104F4000FDF792F84FF48657002239463C48FDF7AA
:104F50008BF8DFF8F0B04FF4416800224146584624
:104F6000FDF782F84FF48079002249463648FDF774
:104F70007BF80122C0215846FDF776F8012238213E
:104F80002F48FDF771F801252020CDE90005CDE976
:104F9000025469465046FCF783FF0820CDE900041F
:104FA000694650460294FCF77BFF10208DE83100E3
:104FB00069465046FCF774FF40260096CDE901454E
:104FC000694650460394FCF76BFF0097CDE9015406
:104FD00069461B480394FCF763FF009669465046F8
:104FE000CDE90145FCF75CFFCDF80080CDE9015427
:104FF000694658460394FCF753FFCDF80090CDE97D
:105000000154694610480394FCF74AFFC020CDE9DB
:1050100000050224CDE9025469465846FCF740FFDA
:105020003820CDE90005CDE9025469460448FCF773
:1050300037FF07B0BDE8F08F303802400010024063
:1050400000040240000C0240000802400D4810B568
:105050000B4901600C49416000214FF4804281609E
:10506000C0E9031241618161C1610162FDF708F885
:10507000002803D0BDE81040FCF73DBA10BD000089
:10508000005C0040D8060020A086010010B592B058
:1050900000240F941C2168461094FBF7EBF82021A4
:1050A00007A8FBF7E7F82D482B490160A721C0E9C5
:1050B000011440F6C311C0E9031444618461FEF792
:1050C0004EFB08B1FCF717FA0F940FA92348109470
:1050D000FEF7DAF808B1FCF70EFA602000904FF402
:1050E0007A70CDE901040394049405940022694682
:1050F0001A480694FEF7CBFA08B1FCF7FCF9042233
:1051000069461648FEF7C3FA08B1FCF7F4F908221D
:1051100069461248FEF7BBFA08B1FCF7ECF90C221D
:1051200069460E48FEF7B3FA08B1FCF7E4F90794B4
:10513000089409944FF400500A94CDE90B4007A954
:1051400006480E94FEF776F808B1FCF7D4F9034848
:10515000FEF74AFA12B010BD000001402C070020F3
:1051600010B58AB0002407941C2168460894FBF708
:1051700081F81E484FF080410160A721C0E9011469
:1051800040F6C311C0E903148461FEF7E8FA08B1E0
:10519000FCF7B1F9079407A914480894FEF774F8CE
:1051A00008B1FCF7A8F96020CDE9000402940422BC
:1051B00069460E480494FEF76AFA08B1FCF79BF9B9
:1051C000082269460948FEF762FA08B1FCF793F92C
:1051D0000C2269460548FEF75AFA08B1FCF78BF92C
:1051E0000248FEF701FA0AB010BD00006C0700206B
:1051F00010B586B0002417480094019402940394DB
:105200000494134905940160A721C0E9011440F2F8
:10521000E731C0E903148461FEF757F808B1FCF7E1
:105220006AF94FF48050009069460A48FEF7BDF8CD
:1052300008B1FCF760F9049404A906480594FEF748
:1052400023F8002801D0FCF756F906B010BD000085
:1052500000040040AC07002010B586B000241748B9
:1052600000940194029403940494134905940160FA
:10527000A721C0E901144FF47A71C0E903148461D5
:10528000FEF723F808B1FCF736F94FF48050009090
:1052900069460A48FEF789F808B1FCF72CF904942E
:1052A00004A906480594FDF7EFFF002801D0FCF79C
:1052B00022F906B010BD000000080040EC070020F5
:1052C0000C4810B50A4901604FF4E13141600021FA
:1052D00081600C22C160C0E904128161C161FEF7E6
:1052E0004FFB002803D0BDE81040FCF704B910BD07
:1052F000004C00402C0800200C4810B50A49016001
:105300004FF4E1314160002181600C22C160C0E9AD
:1053100004128161C161FEF733FB002803D0BDE8B0
:105320001040FCF7E8B810BD005000406C080020A9
:105330000E4810B50C4901600D4941604FF4805191
:1053400081604900C160C91001610C2141610021E7
:105350008161C161FEF714FB002803D0BDE8104055
:10536000FCF7C9B810BD000000100140AC080020D7
:10537000A08601000C4810B50A4901604FF4E131E4
:105380004160002181600C22C160C0E9041281618A
:10539000C161FEF7F5FA002803D0BDE81040FCF724
:1053A000AAB810BD00440040EC0800200C4810B51D
:1053B0000A4901604FF4E1314160002181600C2213
:1053C000C160C0E904128161C161FEF7D9FA002809
:1053D00003D0BDE81040FCF78EB810BD0048004077
:1053E0002C0900200C4810B50A4901604FF4E13146
:1053F0004160002181600C22C160C0E9041281611A
:10540000C161FEF7BDFA002803D0BDE81040FCF7EB
:1054100072B810BD001401406C09002010B50022C4
:105420000F49104801F0E2FF08B1FCF764F80E499B
:105430000C4802F0BBF908B1FCF75DF80B490948CC
:1054400001F00AFE08B1FCF756F8064802F004FA2B
:10545000002803D0BDE81040FCF74DB810BD000097
:1054600014000020CC0D002060010020640000200A
:10547000FEE700002DE9F0417F484FF0FF07A0F163
:1054800002040178CA0700D1677062787A4DAD1DB9
:10549000012A07D0022A0CD000261F2A21D0FF2A79
:1054A00038D1E5E0CA0704D021F0060101700221DD
:1054B000617072490A781F21002A02784FEA42720D
:1054C00003D0002A03DB617006E0002A04DA0278C8
:1054D00042F002020270F6E7642028806880A8800B
:1054E000B9E0674ADFF89CC15368634508D8DFF824
:1054F00098E1734504DC1268624501D872450ADD03
:1055000021F001010170677000F0E8FCFFF74CF832
:10551000A660E660A0E05D48407958B15C48B0F90B
:10552000104000F0CFFB00BF40F25231002C07DCEE
:1055300000220AE057488088A0F57A7004B2F3E7A9
:105540008C4201DD0A4600E022462A80002C01DC64
:10555000002304E08C4201DD0B4600E023466B8013
:10556000002C01DC002004E08C4201DD084600E054
:105570002046A880002C01DC002102E08C4200DCE7
:105580002146454C94ED140AD4ED030A94ED251AF6
:1055900070EE601A31EE812A01EE902AF8EEE11ADF
:1055A00072EE211AFDEEE11A11EE902A70EE201A29
:1055B00012B22A8031EEC12A01EE903A642AF8EE46
:1055C000E11A72EE211AFDEEE11A11EE903A70EE38
:1055D000C01AB1EE400A1EB230EE600A31EE812AE6
:1055E00001EE900A6E8070EE410AF8EEE11A00EECC
:1055F000101A72EE211AB8EEC00AFDEEE11A30EE72
:10560000800A11EE900ABDEEC00A03B2AB8010EE24
:10561000100A01B2E9804FF47A7001DC642202E0E2
:10562000824200DD02462A80642E01DC642602E00C
:10563000864200DD06466E80642B01DC642302E0B6
:10564000834200DD0346AB80642901DC642002E074
:10565000814200DC0846E880B5F90630B5F904203F
:10566000B5F90210B5F90000BDE8F04103F0B2B899
:10567000012060704CE70000CE040020DC04002014
:10568000C8260020000020C2000020425027002031
:105690001043002074430020903F002010B50021EB
:1056A0000848FEF793F804210648FEF78FF8082112
:1056B0000448FEF78BF8BDE810400C210148FEF7C6
:1056C00085B800002C070020704700000148FCF757
:1056D000BDBF0000681000202DE9F04104460068BD
:1056E0000E46016C00EB4615D5F8080B2769202300
:1056F0004FF40042012F08D02C4FB9424FD1010482
:1057000049D500BFC5F8082B4DE0DFF8A4C05FEA1B
:10571000007E04F5717711D5614503D9000401D5E8
:10572000C5F8082B2046FDF7B1FA3A46012120685A
:1057300002F050FC0820C5F8080B34E05FEA806EE8
:1057400002D5C5F8083B2EE010F0280F2BD161459B
:1057500001D90004D6D4C6EBC60004EB8000D5F80E
:10576000102BD0F80412C2F312028A1AC0F81422C5
:10577000D0F808221144C0F80812F1B22046FCF714
:105780004BFE86B9D4F8100268B93A460121206868
:1057900002F020FC07E0800601D5C5F8083BF1B215
:1057A0002046FCF739FE0020BDE8F0810A31544F55
:1057B0000A30544F2DE9F84F0E46C1EBC60100EBFD
:1057C000810481460568D4E914103C34884202D92A
:1057D0000120BDE8F88F081AA168814200D208466E
:1057E000C01C870805EB46181BE000BFA0EB010AB0
:1057F000A068504500D282460AF10300870899F854
:10580000100000901FFA8AF3F2B22846E16802F015
:1058100069FEE16801EB0A00E060A16901EB0A00A2
:10582000A061D8F8180980B2B84205D3D4E90501BF
:10583000814201D20028D9D1D4E90501884208D893
:1058400006F00F0101208840D5F834188143C5F8CF
:1058500034180020BDE700001C48B2EE000ADFED5E
:105860001C0A80ED330AC0ED000A9FED1A1AC0ED44
:10587000010A80ED021AB2EE041A80ED0D1AFAEE5A
:10588000041AC0ED0E1A80ED440AC0ED110AF7EEBD
:10589000000AC0ED120ADFED100AC0ED130A80ED18
:1058A0001E1AC0ED1F1A80ED550AB0EE000A80EDF9
:1058B000220A9FED0A0A80ED240A9FED090A80ED75
:1058C000310A9FED080A80ED320A7047903F0020B0
:1058D000CDCC8C3F8FC2753D0AD7233D0000000020
:1058E0000000C8420000C8C27F4910B548887D4A00
:1058F000A0F2DC50404201EE100AD2ED040AB8EEEC
:10590000C11ADFED7A1A7A4841EE210AC0ED000A89
:10591000098892ED051AA1F2DC51494202EE101AF3
:10592000F5EEC00AB8EEC22A02EE211AF1EE10FA24
:1059300080ED011A01DCF1EE600A10EE902A6D494B
:10594000DFED6D1A8A4201DAC0ED001AB5EEC01A19
:10595000F1EE10FA01DCB1EE411A11EE102A8A4282
:1059600001DAC0ED011A6549674CB1F9082000EE73
:10597000902A5F4AF8EEE02A0832C2ED002AB1F917
:105980000A3000EE903A5E4BB8EEE02A82ED012A32
:10599000B1F90C2000EE902A554AF8EEE04A203288
:1059A000C2ED004AB1F90E1000EE901A02F10801A2
:1059B000F8EEE00AC2ED010A90ED001A71EE623ACB
:1059C00071EE644AC1ED003A90ED014A34EE423A7C
:1059D00034EE604A81ED013A183901F1080091ED89
:1059E000005A35EE625A80ED005A91ED015A35EEBB
:1059F000425A80ED015A183090ED001A04EE801AD8
:105A000080ED001AD0ED010A11EE102A44EE000AD2
:105A10009FED3C4A9FED3D0A9A42C0ED010A02D338
:105A2000B0EE441A05E011EE102AA24201DDB0EEFC
:105A3000401A10EE902A80ED001A9A4202D3F0EE3E
:105A4000440A05E010EE902AA24201DDF0EE400A81
:105A5000C0ED010AC1ED002ADFED2D2A81ED012AFA
:105A60009FED2C2A23EEA20A21492B4C383101EE5E
:105A7000020A23EE221A294B00EE821A10EE102A97
:105A800081ED000AA24281ED011A02D3BBEE040AA5
:105A900005E010EE102A9A4201DDB3EE040A11EE81
:105AA000102A81ED000AA24202D3BBEE041A05E0DF
:105AB00011EE102A9A4201DDB3EE041A81ED011AAB
:105AC0000B49403181ED000AB1EE410A81ED010A36
:105AD00013490978002903D1C0ED001AC0ED011A5D
