:020000040800F2
:10000000384100209D0100083D530008953F00083D
:10001000E5500008171300080D85000800000000D7
:100020000000000000000000000000009D5B0008D0
:10003000ED14000800000000A9570008A15B0008AB
:10004000B7010008B7010008B7010008B7010008B0
:10005000B7010008B7010008B7010008B7010008A0
:10006000B7010008B7010008B7010008B701000890
:10007000811300088D13000899130008B5130008B8
:10008000D1130008DD130008B7010008B70100080C
:10009000B7010008B7010008B7010008B701000860
:1000A000B7010008B7010008B7010008B701000850
:1000B000B7010008095D0008155D0008B7010008D8
:1000C000B7010008B7010008B7010008B701000830
:1000D000B701000885650008B5650008E5650008FA
:1000E000B7010008B7010008B7010008B701000810
:1000F000B7010008B7010008B7010008F9130008AC
:10010000B7010008B7010008B7010008B7010008EF
:100110002960000859600008B7010008B70100080D
:10012000B70100081514000821140008B7010008E1
:10013000B7010008B7010008B7010008B7010008BF
:10014000B7010008B7010008B701000841530008D3
:10015000B70100082D140008B70100080D6600085B
:10016000B7010008B7010008B7010008B70100088F
:10017000B7010008B7010008B7010008000000003F
:10018000B7010008B7010008DFF80CD000F01EFB33
:100190000048004761920008384100200648804727
:1001A00006480047FEE7FEE7FEE7FEE7FEE7FEE75C
:1001B000FEE7FEE7FEE7FEE7B55C00088901000800
:1001C0002DE9F05F0546002092469B46884606468C
:1001D000814640241BE0284641464746224600F01F
:1001E000CFF953465A46C01A914110D311461846CA
:1001F000224600F0B6F92D1A67EB01084F46224659
:100200000120002100F0ADF917EB00094E41201E3E
:10021000A4F10104DFDC484631462A464346BDE8E6
:10022000F09F10B5431A934209D28318881803E04F
:1002300010F8011D03F8011D521EF9D210BD40EA4D
:1002400001039B0703D009E008C9121F08C0042A54
:10025000FAD203E011F8013B00F8013B521EF9D23B
:1002600010BDD2B201E000F8012B491EFBD270474D
:100270000022F6E710B513460A4604461946FFF772
:10028000F0FF204610BD2DE9FE4F804681EA0300B5
:10029000C00F0C46009021F0004123F00045B8EB60
:1002A0000200A94105D24046214690461C460B4615
:1002B000024623F00040104347D0270DC7F30A0041
:1002C000C3F30A510290401A019040286BDAC3F33D
:1002D000130040F4801B0098924620B10023D2EB1B
:1002E000030A63EB0B0B01985946C0F140025046DC
:1002F00000F037F906460D4650465946019A00F07F
:100300004FF910EB08006141002487EA115284EA9A
:10031000E7731A4340D0009A62B3019A012A4FEA68
:10032000075215DC001B61EB02014FF0004202EAAC
:100330000752CDE90042001C41F5801132462B46A0
:1003400000F086F903B0BDE8F08F40462146F9E79A
:10035000001B61EB0201001C41F5801300185B419A
:100360002018A2F5001747EB030140EAD570B61933
:100370006D4111E06D084FEA360645EAC0754FEA57
:100380000752001B61EB0201001C41F58011490876
:100390004FEA30000019514132462B4603B0BDE808
:1003A000F04F00F046B90098012240000023D0EB46
:1003B000020263EBE073009821464FEAE074B8EB69
:1003C000000061EB0401E9E783F000435BE781F0A3
:1003D000004158E72DE9FE4F81EA030404F0004490
:1003E00021F0004100944FF0000B23F0004350EA4D
:1003F00001045ED052EA03045BD0C3F30A54C1F394
:100400000A552C44A4F2F3340194A0FB0254C1F326
:10041000130141F48011C3F3130343F4801301FB70
:10042000024400FB034E840A970A44EA815447EAD7
:100430008357A4FB076802958D0A05FB07854FEAE1
:10044000932C04FB0C542705029D4FEA065847EAFB
:100450001637B5EB08056EEB070C870E920E47EAD0
:10046000811742EA8312A7FB0201B6EB0B0164EB92
:1004700000042B0D43EA0C335E1844EB1C50DA46A3
:100480005146E7FB0201C5F313044FEA0B3343EA7D
:1004900014534FEA0432019C43EA0603A4F10C040E
:1004A0000294009CCDE900B400F0D2F803B0BDE89E
:1004B000F08F00200146F9E70EB540F2334102917A
:1004C0000021CDE900110A460B4600F0C1F803B047
:1004D00000BDC1F30A5210B5C1F3130140F2FF335E
:1004E00041F480119A4201DA002010BD40F23343FA
:1004F0009A42A2F2334203DC524200F041F810BDAE
:10050000904010BD00F0004230F000400AD0C10D14
:1005100001F56071C0F3160042EA0151C2084007BC
:100520001143704700200146704701F0004330B48A
:1005300021F0004150EA010206D00A0DA2F56072D6
:10054000C1F31301002A02DC30BC00207047440FC5
:1005500044EAC104C100E01830BC00EBC25000F016
:1005600031B8202A04DB203A00FA02F1002070475B
:100570009140C2F1200320FA03F3194390407047E1
:10058000202A04DB203A21FA02F00021704721FAE8
:1005900002F3D040C2F1200291400843194670474F
:1005A000202A06DBCB17203A41FA02F043EAE07337
:1005B00006E041FA02F3D040C2F120029140084324
:1005C000194670470029A8BF7047401C490008BF62
:1005D00020F00100704710B4B0FA80FC00FA0CF073
:1005E00050EA010404BF10BC704749B1CCF12004AB
:1005F00021FA04F411FA0CF118BF01212143084338
:10060000A3EB0C01CB1D4FEA00614FEA102042BF63
:10061000002010BC704700EBC35010440029A4BF59
:1006200010BC7047401C490008BF20F0010010BCFE
:10063000704710B5141E73F1000408DA401C41F134
:10064000000192185B411A4301D120F0010010BD56
:100650002DE9F04D92469B4611B1B1FA81F202E0CC
:10066000B0FA80F220329046FFF77BFF04460F4637
:1006700040EA0A0041EA0B0153465A46084313D0A8
:10068000114653EA010019D0C8F140025046FFF765
:1006900077FF05460E46504659464246FFF761FF32
:1006A000084305D0012004E020463946BDE8F08D1E
:1006B0000020054346EAE0762C4337430A98630559
:1006C000E40AA0EB08000022FD0A44EA47540A307D
:1006D00002D500200146E9E7010510196941DDE96D
:1006E000084500196941BDE8F04DA2E72DE9F04D3C
:1006F00081EA030404F0004B21F0004514464FF05A
:10070000000A23F0004150EA050220D054EA010219
:100710001DD0C5F30A570246C5F31303C1F31300F6
:10072000C1F30A5640F4801543F48013A7EB060882
:10073000101BD64608F2FD3873EB050002D308F112
:10074000010801E092185B41B8F1000F03DA0020C4
:100750000146BDE8F08D00204FF480110646844626
:100760000EE0171B73EB050705D3121B63EB0503A4
:1007700006434CEA010C49084FEA300092185B41ED
:1007800050EA0107EDD152EA030012D082EA0400D8
:1007900083EA0501084305D0101BAB4106D20122B4
:1007A000002306E000224FF0004302E06FF0010258
:1007B00053101AEB06004CEB085110EB0A0041EB0A
:1007C0000B01BDE8F04DFFF734BF0000064C074DAC
:1007D00006E0E06840F0010394E807009847103411
:1007E000AC42F6D3FFF7D4FC28D3000848D3000866
:1007F0002DE9F04D00231A461B1A8A4103DB002025
:100800000146BDE8F08DC1F30A52C1F3130141F472
:1008100080154FF0000BD10702D100186D41521E18
:100820000027044640F2FF11384601EB620A3E46BB
:100830008046024600204FF48011FFF7A1FEC21946
:100840007141BB1846EB0100B4EB030C75EB000CD7
:1008500004D3E41A65EB000517460E46241908F187
:1008600001006D4180463428E3DDF91946EB0600AE
:10087000091BA84103D24FF0FF32134601E00022CA
:1008800013461BEB070046EB0A51BDE8F04DFFF79E
:10089000D0BE70B58C1810F8015B15F0070301D1BC
:1008A00010F8013B2A1106D110F8012B03E010F8D3
:1008B000016B01F8016B5B1EF9D12B0705D40023F6
:1008C000521E0DD401F8013BFAE710F8013BCB1A98
:1008D000921C03E013F8015B01F8015B521EF9D58D
:1008E000A142D8D3002070BD30B5904B90489149BB
:1008F000D3ED003AC0ED053A93ED021A80ED071AE8
:1009000093ED014A11EE102A80ED034A8988A1F285
:10091000DC5100EE901AF8EEE00ADFED871A03F1E1
:100920001401864D60EEA10AC1ED000A90ED062A81
:1009300012EE104ADFED821AAC4206DBF5EEC00A79
:10094000F1EE10FA01DDC1ED001A7E4D0C68AC42EB
:1009500004DA7D4DAC4201D2C1ED001A7B4C91ED21
:10096000003AD4ED030ADFED7A2AB5EEC03AF1EE93
:1009700010FA04DBDFED774A43EE240A01E043EE90
:10098000220AC1ED010ADFED740AD1ED024A20EE20
:10099000203AD1ED010A70EEE40AC0ED010AF4EE4E
:1009A000C30AF1EE10FA06DCB1EE433AF4EEC30AE4
:1009B000F1EE10FA01D280ED013AD0ED010A34EEE9
:1009C000A03A81ED023AD1ED030A73EE604A9FED41
:1009D000635A44EE850AC1ED030A61494979C1B100
:1009E0000478B4B100EE802AC0ED040A71EE220A48
:1009F00080ED062AF4EEC20AF1EE10FA06D371EE8B
:100A0000620AF4EEC20AF1EE10FA06DDC0ED060A43
:100A100003E0C0ED041A80ED061AD0ED060A514D30
:100A2000F7EE082ABDEEE02A70EEC10A12EE104A77
:100A3000BDEEC12A2C804C4D12EE104A2C80C0ED28
:100A4000080A90ED042A00EEA22ADFED480A44EEDF
:100A5000203A72EE630AB1EE042AC0ED090A20EED4
:100A6000822A80ED022A72EE440AC0ED0A0ADFED06
:100A7000402A404D60EEA22AD0ED0B0A42EE800AD9
:100A800010EE904AC0ED0B0AAC4202DDDFED3A0AEF
:100A900006E0F5EEC00AF1EE10FA01D2F0EE610ABE
:100AA0009FED360AC0ED0B0A354D22EE000A80EDAF
:100AB0000C0A30EE200A10EE104A80ED0D0AAC420E
:100AC00002DD9FED300A06E0B5EEC00AF1EE10FA45
:100AD00001D2B0EE610A80ED0D0ABCEEC00A10EE44
:100AE000104A1C82284C2478E40710D0012461B1FC
:100AF000BDEEC30A10EE101A09B2002906DD234923
:100B00008A420BDA22498A4208D2047030BDC0ED15
:100B10000B1A80ED061A0021017030BDC3ED021AD8
:100B2000C3ED011AC3ED001A30BD00001C3B0020CC
:100B300078020020803B00206F12833A00001643A9
:100B400000000000CDCCCC3DCDCCCCBD803C002005
:100B500000001643000048430000FA43CDCC4C3E51
:100B6000A0230020FE010020FC010020CDCC4C3D44
:100B70009A99193F0000164400001644CDCCCC3E93
:100B800000007A4400007A446A02002000002042FB
:100B9000000020C270B5C94CF6EE000A2DED028BA4
:100BA00060EE208AD4ED010A94ED031AD4ED001A08
:100BB00094ED020A20EE812AB0EE008A8AB0C04984
:100BC00001EEC02A61EEA01A60EEA00A054640EED2
:100BD000011A40EE000AB7EE000A22EE082A21EEC2
:100BE000881A00EEC80A8DED002A8DED011A8DEDF0
:100BF000020AB1F9000000EE100AB1F9020000EE9D
:100C0000900AB8EEC00AB8EEE01A00EE900A20EEA4
:100C1000000AB1F90400F8EEE00A01EE200A00EE45
:100C2000900AB8EEE01A00EE900AF8EEE00A01EE43
:100C3000200A04F073FEB5F90000A4F11C0600EED2
:100C4000900AF8EEE00A60EE800ACDED030AB5F9ED
:100C5000020000EE900AF8EEE00A60EE800ACDEDA8
:100C6000040AB5F9040000EE900AF8EEE00A20EE5E
:100C7000800A8DED050A9DED040ADDED020A9DED69
:100C8000011A20EE200ADDED050A00EEC10A8DED05
:100C9000060A9DED050ADDED000A9DED021A20EE23
:100CA000200ADDED030A00EEC10A8DED070A9DED75
:100CB000030ADDED010A9DED001A20EE200ADDEDAC
:100CC000040A00EEC10A8DED080AB5F906009DED93
:100CD000061A00EE100A7B48B8EEC00AD0ED000AF2
:100CE00060EE200A96ED000A40EE010ACDED000A02
:100CF000B5F9081090ED001A00EE901AF8EEE00A2F
:100D000060EE810A9DED071A40EE010ACDED010A61
:100D1000B5F90A1090ED001A00EE901AF8EEE00A0C
:100D200060EE810A9DED081A40EE010ACDED020A3F
:100D300094ED011A9DED000AD4ED020A9DED022A00
:100D400060EE411A9DED010A40EEC01A94ED030ACF
:100D500040EE421A9DED002A21EEA83AD4ED001A89
:100D6000DDED012ADDED013A21EE822A9DED004AFA
:100D700031EE833A00EE622ADDED022A00EEA22A6D
:100D8000DDED002A60EE222A22EE282A41EEA32A77
:100D9000DDED023A41EE632A62EEA83ADDED012A6A
:100DA00061EE222A31EE021A40EEC42A9DED024A7B
:100DB00070EEA30A84ED003A84ED011AC4ED020A34
:100DC00041EE842A62EEA82A70EE221A23EE030A6C
:100DD000C4ED031A01EE010A00EEA00A01EEA10A19
:100DE00004F09CFDD4ED000A60EE801AC4ED001AF8
:100DF000D4ED010A21EE883A61EEA11A20EE801AA4
:100E000084ED011AD4ED020A61EE082A41EE411A7E
:100E100060EE800AC4ED020A94ED032A40EEE01A67
:100E200022EE000A23EE202A84ED030A40EE001A87
:100E300002EEC02A60EE882A62EE802A86ED022A3F
:100E400043EE012A9FED221AC6ED032AC6ED041ACD
:100E5000B5F90000404200EE100AB5F90200B8EE04
:100E6000C00A00EE900AB5F9040020EE020AF8EE7E
:100E7000E00A00EEA20A00EE900AA4F10800F8EEE3
:100E8000E00A00EEA10ADFED100A86ED010A30EE5D
:100E9000600ADFED0E0A60EE200AC0ED000A90ED58
:100EA000010A70EEC00A00EE810A80ED010A0948CD
:100EB00080ED010A0AB0BDEC028B70BDC8010020B4
:100EC000F0220020D0D20008000000457D3FF53E12
:100ED000CDCCCC3D1C3B002010B50A48144602780E
:100EE0001AB181800021017002E08188491E818051
:100EF0008188002905D10121017008F0A5FB024875
:100F0000047510BD0C030020043D002070B57E491F
:100F10001A222DED048B01F13800FFF782F97A488F
:100F200000F120050178AA2925D14178AF2922D1E5
:100F3000818849BA2980C18849BA6980018949BA3A
:100F4000A980418949BAE980818949BA2981C18941
:100F500049BA6981018A49BAA981418A49BAE981B4
:100F6000818A49BA2982C18A49BA6982008B40BA0A
:100F7000A88204F0E9FC644838300188A1F52A42CF
:100F8000AA3A17D1018BA1F5AA42553A12D15F4A6C
:100F90000321D17001892980C18869808188A98055
:100FA0004189E980C1892981818969814088688274
:100FB00004F0CAFC564801780F297AD1524CB0F897
:100FC0000110203CC1F30A0121808178CA08C17850
:100FD00042EA4112C2F30A0262800279890941EAB7
:100FE0008202417942EA8122C2F30A02A2804A08BF
:100FF000817942EAC112C2F30A02E2800A09C17988
:1010000042EA0112C2F30A022281027AC90941EAC4
:101010004202417A42EA4122C2F30A0262818A080C
:10102000817A42EA8112C2F30A02A281C27A490994
:1010300041EAC201E1818189C1F30A012182417B38
:10104000CA08817B42EA4112C2F30A026282C27B71
:10105000890941EA8202017C42EA8122C2F30A0242
:10106000A2824A08417C42EAC112C2F30A02E28229
:101070000A09817C42EA0112C2F30A022283C27C7D
:10108000C90941EA4202017D42EA4122C2F30A0251
:1010900062838A08417D9FED1F8B42EA8112C2F371
:1010A0000A02A2834909807D002641EAC000E0834C
:1010B00000E022E09FED199B34F81600FFF7FCF9E1
:1010C00053EC182BFFF786F953EC192BFFF7DBF8DD
:1010D000FFF7FFF924F81600761C102EECDB608871
:1010E000688020882880E088E880A088A8802089FF
:1010F0002881E089688104F027FC0A493220486091
:10110000BDEC048B70BD0000603B00209601002008
:10111000C42300207F6ABC749318E83F00000000DD
:1011200000A88740F8020020F0B40021144B42F2DE
:1011300010760C46DA1C5D5CA5B122F811405C54B7
:10114000491CC9B20229F6D313884FF47A710D48AD
:101150008B4202D852888A420DD90470F0BC00201C
:1011600000F0C4B832F81150B542E8D207783D44D7
:1011700022F81150E3E701210170F0BC7047000034
:10118000DB010020242300202DE9F0410022044649
:1011900010464B1E04E0255C401C2A44D2B2C0B26B
:1011A0009842F8DB601810F8010C904233D1E078D7
:1011B000244E234D012706F10308512821D16079DF
:1011C00058B3012827D13069401C3061A07900F064
:1011D0008DF8E079217A41EA00202881607AA17AAD
:1011E00041EA00206881E07A217B41EA0020A88161
:1011F000607BA17B41EA0020E881E07C687188F88F
:101200000070E078522806D1607980B1012802D1BF
:10121000E08840BA6882BDE8F081A07900F066F805
:10122000E079A871207AE871607A6871E9E7F0687E
:10123000401CF060E08840BA288288F80170EAE734
:1012400024230020D8010020264930B48A78264B78
:10125000002482B1012A15D0022A19D0032A1BD0FA
:10126000042A1DD00B46204D1B78052A1D4420D092
:10127000062A2CD033E0AA2831D101228A701870B6
:1012800030BC704722282AD102228A705870F7E7B2
:1012900003228A709870F3E704228A70D870EFE70F
:1012A00005228A7018714870282800D98C700C703B
:1012B000E6E74A789AB1521E12F0FF024A7068714E
:1012C00003F101030B70DBD106208870D8E78C7026
:1012D00068719B1D30BCD9B20348FFF755BF8C70B5
:1012E000CEE70000D80100206C230020064900F062
:1012F00001024A70C0F340028A70C0F38002CA70D3
:10130000C0F3C000087170472423002001B568466F
:10131000FFF70AFF08BDFEE7002070470020704776
:1013200010B500220449054805F020FC0449034893
:1013300005F016FC002010BDC01A00201C0A002079
:10134000C012002010B50146034805F009FC024810
:1013500005F0EAFB002010BD1C0A002000B5024683
:10136000B0EE403A084606F013FF91ED030A10462E
:1013700082ED050AB0EE430A5DF804EB06F008BF03
:10138000014800F089BB00009C080020014800F0E3
:1013900083BB0000BC06002010B5044800F07CFBB5
:1013A0000349012081F8380610BD0000FC08002028
:1013B0005C24002010B5044800F06EFB03490120B6
:1013C00081F8340910BD00005C0600205C24002078
:1013D000014800F061BB00003C08002010B5044843
:1013E00000F05AFB0349012081F83C0310BD0000C6
:1013F000DC0700205C24002010B5044800F04CFB02
:101400000349012081F8300C10BD00001C070020AA
:101410005C240020014800F03FBB00005C09002074
:10142000014800F039BB00007C07002010B50448DB
:1014300000F032FB0349012081F82C0F10BD0000A1
:10144000BC0900205C24002001681823CAB2103AAD
:10145000B2FBF3F2054B6FF30901032A9B5CC365F2
:1014600000D9091D81650846704700008C99000865
:1014700010B5014600208B698A6A4FF0C07453B1E1
:10148000B3F5005F15D072B1012A0CD0022A0AD040
:10149000032A09D104E01AB1012A06D0022A03D195
:1014A000C96AC90100D5012010BDC96AA142FAD09C
:1014B00010BD002AF7D0012AF2D0022AF3D0032A65
:1014C000F3D010BD30B50468256825F4802525606B
:1014D000046863608368402B036803D099600068E8
:1014E000C26030BD9A600068C16030BD704770470F
:1014F0002DE9F0415A4D2DED028BF0EE408A28780F
:10150000AF1C4FF0FF0801280BD09FED568A564EB6
:10151000564C0B280AD01F2814D0FF286FD0404605
:1015200094E03878C0076BD00B2094E004F018FBEF
:1015300002F0EAFE86ED028A85ED018A84ED5B8A7F
:101540001F2083E04B4A4A48B6EE002AB2F9061043
:10155000D0ED001A00EE101A4749F8EEC00A91EDDE
:10156000001AB0EE610A10EE810A40EE021AC0EDD8
:10157000001AB2F90830D0ED010A00EE103AD1EDB0
:10158000002AB8EEC01AB0EE600A11EE220A40EE50
:10159000020AC0ED010AB2F90A2090ED021A00EE2B
:1015A000102A91ED003A3549F8EEC02AB0EE410A12
:1015B00012EE830A00EE021A80ED021AC4ED171A29
:1015C000C4ED060A84ED281A96ED010A84ED390A65
:1015D00096ED000A84ED4A0A84ED5B8A96ED020AD4
:1015E000D5ED010A70EEC00A9FED250A10EE900AB3
:1015F000C4ED5A0A884204DB30EEC00A08E020E05D
:1016000028E010EE900A1F49884203D330EE800A8A
:1016100084ED5A0A1C49B0EE680AA1F1CC00FFF72C
:101620009DFE1949B0EE680A44391048FFF796FE4E
:101630001549B0EE680A4431A1F1CC00FFF78EFEE7
:1016400005E004F08DFA02F05FFE01202870387882
:10165000C00701D140462870BDEC028BBDE8F08187
:101660006802002000000000182300209C370020A2
:10167000103B0020F0220020CCD2000800003443B0
:101680000000B443000034C3AC3800202349244890
:1016900001F14402B7EE080AC0E9071281ED000A21
:1016A000016ADFED210A9FED211A81ED000A016A2E
:1016B000B0EE080A81ED070AC16981ED070AA2F5BB
:1016C00019719FED180A01F52A7282EC030A44325F
:1016D00082EC030AFBEE040A9FED150A81ED8D0AE8
:1016E0009FED140A81ED9E0A016AB3EE040A81EDB2
:1016F0000F0AC1ED100AC16981ED0F0AC1ED100A90
:10170000002180F82C104FF44871C18232210183EE
:101710000949C1600949016170470000BC390020D6
:10172000043D00206666E63EB81E053E4260653C0C
:10173000000070420000A0421C2F0020A0230020C7
:1017400070B504462548F0EE001A2DED028BF7EE39
:10175000000A90ED020A90ED031A20EE002A01EE35
:10176000012A42EE610A90ED012A22EE212A22EEA0
:10177000000A90ED002A62EE211A01EE810A07F0BC
:1017800003FA174DD5ED000A20EE200A84ED020A77
:101790002868FEF7B7FE114E41EC180B1C3EB068EE
:1017A000FEF7B0FE41EC100B07F03EF853EC182B9F
:1017B00051EC100BFEF70EFEFEF7B7FE6060D6EDA3
:1017C000040A96ED030A07F0DFF9D5ED000A20EED2
:1017D000200A84ED000ABDEC028B70BDC801002018
:1017E000C8D20008FEB5244D002400BF04F13B0020
:1017F000C1B2D02002F056FC2855641C0E2CF5DB3B
:101800001D49062208312C46A81DFEF70AFD1C487A
:10181000194F00211A3F9FED191AD0F804506B465A
:10182000A7F1300607EB410234F81100928940BA63
:10183000801A00B200EE100A06EB810223F81100B4
:10184000F8EEC00A92ED000A70EEC00A00EE810ABE
:1018500082ED000AD2ED060A30EE600A40EE010A7F
:10186000C2ED060ABDEEE00A10EE100A25F81100DE
:10187000491C0629D6DBFEBD0A2300209A99993E11
:10188000A00100202DE9F04F8BB0182104A8FEF72D
:10189000EFFC002551480295039500950195C5631D
:1018A0004E4C0564456430344FF4006020822E466F
:1018B000012000F067FAFFF795FF761C642EF7DB36
:1018C0004FF4C8774FF4167ADFF8148140F21F36D0
:1018D000C7F10009CAF1000BD8F80800401CC8F88D
:1018E0000800022000F04EFAFFF77CFFB4F9000078
:1018F00000F28F10B0421CD2B4F90200B84218DADC
:10190000484516DDB4F90400504512DA584510DD9B
:10191000D8F80800B0F5FA6FDEDDB4F90670B4F956
:1019200008C0B4F90A90D8F8042002A96D464FB94E
:1019300002E0C8F80850CFE7BCF1000F02D1B9F1BE
:10194000000FF4D05FF0000002EB400331F81060AC
:10195000DB889E1B25F8106021F81030401C00B277
:101960000328F1DBBDF90000001D0828DFD8BDF910
:101970000200001D0828DAD8BDF90400001D08285F
:10198000D5D80025FFF72EFF4FF4B27704AE11E053
:10199000FFF728FF642D0DDBD8F80410002000BFEE
:1019A00056F8202031F910301A4446F82020401C07
:1019B0000628F5DB6D1C2DB2BD42E9DB5FF00000AF
:1019C00004EB400256F82010401C091200B291812D
:1019D0000628F5DB0BB0BDE8F08F0000C022002028
:1019E000A00100202DE9F0410446876D00F0C0FA07
:1019F000064694F835000025022806D08020606550
:101A000084F834500120BDE8F0812068016821F09D
:101A1000160101602068416921F080014161206C5C
:101A200008B9A06C20B12068016821F008010160AC
:101A30002068016821F0010101600BE000F098FAD4
:101A4000801B052806D92020606504F8345F032038
:101A50006070D8E720680068C007EFD194F85C1088
:101A60003F208840B86004F8345F01206070002097
:101A7000C9E790F83510022903D080214165012083
:101A80007047052180F835100068016821F00101D8
:101A900001600020704700002DE9F84304464FF034
:101AA0000009CDF8009063484FF41651A56D006809
:101AB000B0FBF1F72E6894F85C10082000FA01F1F1
:101AC00031420FD021680A6852070BD50A6822F00C
:101AD00004020A6094F85C108840A860606D40F0D1
:101AE0000100606594F85C104FF0010808FA01F0FD
:101AF000304208D021684969090604D5A860606DA4
:101B000040F00200606594F85C1004208840304288
:101B100008D021680968890704D5A860606D40F085
:101B20000400606594F85C1010208840304218D0A2
:101B300021680968090714D5A8602068016849036D
:101B400004D50068000308D5A16C07E00168C90549
:101B500003D4016821F008010160216C09B120461D
:101B6000884794F85C1020208840304231D02168AA
:101B70000968C9062DD5A86094F8350005282068A5
:101B8000016806D0490347D5006800031DD4616C85
:101B90001CE021F0160101602068416921F08001FC
:101BA0004161206C08B9A06C20B12068016821F067
:101BB0000801016094F85C103F208840A86084F818
:101BC000349084F83580216D1FE0E16B09B1204627
:101BD0008847606D00282BD0606DC00714D00520A9
:101BE00084F835002068016821F001010160009847
:101BF000401C0090B84203D820680068C007F6D1A6
:101C000084F8349084F83580E16C002910D001B05C
:101C10002046BDE8F04308470168C905D5D40168EE
:101C200021F01001016084F8349084F83580CCE70D
:101C3000BDE8F883780000202DE9F041044600F06B
:101C400097F906465CB1002584F83450022084F8E8
:101C500035002068016821F0010101600DE00120DC
:101C6000BDE8F08100F084F9801B052805D920200B
:101C70006065032084F83500F2E720680068C0073B
:101C8000F0D12268116820480140D4E901031843CB
:101C9000D4E903363343184363691843A3691843EF
:101CA000E3691843236A18430843616A042903D18E
:101CB000D4E90B1319430843106020684069666A31
:101CC00020F0070130460E43012704280CD1A06AFA
:101CD0000643E06A40B12046FFF7CAFB20B140202E
:101CE000606584F83570BAE7206846612046FFF7E2
:101CF000ABFB94F85C203F2191408160656584F8DE
:101D000035700020ACE700003F8010F02DE9F04175
:101D10000446866D90F83400002501280DD001207E
:101D200084F8340094F835700020012F07D084F82F
:101D3000340002252846BDE8F0810220FBE7022797
:101D400084F8357060652046FFF7BCFB94F85C10A2
:101D50003F208840B0602068016841F016010160B2
:101D60002068416941F080014161206C20B1206808
:101D7000016841F0080101602068016841F001013B
:101D80000160D7E770B5044600F0F2F80546601C24
:101D900002D004480078044400F0EAF8401BA04256
:101DA000FAD370BD6C0000202DE9F84FDFF87CB14C
:101DB00000224FF001084FF0030A4FF00F090BF11A
:101DC000040E00BF0B6808FA02F42340A3426ED150
:101DD0004D68022D01D0122D0ED1D50800EB850CD7
:101DE000DCF820505607F70E09FA07F6B5430E69DE
:101DF000BE402E43CCF82060066855000F790AFAE1
:101E000005FC07F0030726EA0C06AF4037430760DE
:101E10004E68012E05D0022E03D0112E01D0122EB5
:101E20000ED18668CF6826EA0C06AF40374387603C
:101E30004668A6430C79C4F30014944034434460CC
:101E4000C6688C6826EA0C06AC403443C4604C6813
:101E5000E40065D5364C256845F480452560246846
:101E600022F0030504F480440094324C2E19D6F875
:101E7000084895072F0F09FA07F5AC432E4DA842E5
:101E800001D1002524E02D4DA84201D101251FE0FC
:101E90002B4DA84201D102251AE02A4DA84201D1BA
:101EA000032515E0284DA84202D1042510E037E0B3
:101EB000264DA84201D105250AE0254DA84201D1B1
:101EC000062505E0234DA84201D1072500E008259D
:101ED000BD402543C6F80858DBF800405D464E6813
:101EE0009C43F60300D51C432C60DEF80040754689
:101EF0004E689C43B60300D51C432C600B4D08353F
:101F00002C684E689C43F60200D51C432C60074D9C
:101F10000C352C684E689C43B60200D51C432C60DF
:101F2000521C102AFFF44EAFBDE8F88F003C014070
:101F300044380240003001400000024000040240EA
:101F400000080240000C0240001002400014024051
:101F500000180240001C0240426931EA020200D12E
:101F60000904816170470AB1816170470904FBE788
:101F700001488068704700006C00002070B50400C4
:101F80001BD094F83D00002520B984F83C50204631
:101F900000F0AEF8242084F83D002068016821F0AC
:101FA0000101016000F0CEFE4D4A6168914201D806
:101FB0004C4900E04C49884201D2012070BD4B4998
:101FC0002368B0FBF1F15E6826F03F060E435E60C9
:101FD0006368934206D94FF4967359434FF47A736A
:101FE000B1FBF3F12368491C1E6A26F03F0631431A
:101FF00019626168914210D84900401EB0FBF1F2AD
:10200000521CC2F30B02042A01D2042022E0B0FBCE
:10201000F1F0401CC0F30B001CE0A368F3B301EB2C
:10202000C10202EB0116421EB2FBF6F2521C42F450
:102030008042120549D093B301EBC10202EB0111BA
:10204000401EB0FBF1F0401CC0F30B0040F4804098
:1020500040F400402168CA694CF6FF739A4310436C
:10206000C861D4E90701084321680A6822F0C00268
:1020700010430860D4E9030101432068826848F2F4
:10208000FF339A4311438160D4E905010843216875
:10209000CA6822F0FF021043C86001E00EE016E0BB
:1020A0002068016841F0010101602564202084F866
:1020B0003D00256384F83E50002070BD01EB4106D1
:1020C000421EB2FBF6F2521CB3E70120C2E701EB5D
:1020D0004101401EB0FBF1F0401CC0F30B00B7E71C
:1020E000A086010080841E0000093D0040420F00D0
:1020F000F0B587B0044614216846FEF7B9F81A49CE
:10210000206888422DD11948016841F0040101601E
:10211000016801F004010591016841F001010160CD
:102120000068122400F0010005904FF400700125B2
:10213000032604278DE8F10069460D48FFF734FEB9
:1021400028028DE8F10069460A48FFF72DFE07488E
:102150001030016841F400010160006800F40000E3
:10216000059007B0F0BD0000005C00403038024030
:1021700000080240000002400248816802781144D1
:10218000816070476C0000200B4810B5016841F475
:1021900000710160016841F480610160016841F4EF
:1021A00080710160032000F06FF8002000F006F855
:1021B00000F024F8002010BD003C024070B50D4D29
:1021C00004464FF47A712878B1FBF0F00A490968A7
:1021D000B1FBF0F001F00CF848B9102C07D2002246
:1021E0002146501E00F030F800206C6070BD0120C8
:1021F00070BD00006C000020780000200A4808B57F
:10220000016841F480410160006800F48040009062
:102210000548001F016841F080510160006800F02E
:102220008050009008BD000044380240002809DBBF
:1022300000F01F02012191404009800000F1E020E0
:10224000C0F8001170470000F0B40E4B1B680C463C
:10225000C3F30223C3F10705042D00D90425191D7A
:10226000072901D2002300E0DB1E012606FA05F152
:10227000491E214099409E40761E16403143F0BCD5
:1022800006F0C1BA0CED00E0064900F0070208684C
:102290004FF6FF03184040EA0220034A104308604B
:1022A000704700000CED00E00000FA057047006880
:1022B000416200207047F0B50368586A39B19C6AE2
:1022C0004FF4827600EB144400204D1E0AE040EAF1
:1022D000024098620FE006EB8007DF59401C04EBD8
:1022E0001744C0B2A842F6D344EA02404FF48072C9
:1022F00002EB810158500020F0BDD0F8040404F036
:10230000BCBEC1EBC10200EB8202D0F80404926CA7
:1023100004F00FBEC1EBC10200EB8202D0F804044E
:10232000D2F8082204F068BED0F8040404F0A7BE76
:1023300070B504460B0601F00F00C0EBC00104EBC2
:1023400081014FF001024FF0000503D581F83D20D7
:102350003C3103E081F8FD5101F5FE71087094F8FD
:10236000BC03012808D084F8BC23206805F0FEF9DE
:1023700084F8BC53002070BD022070BD70B50446C7
:1023800001F00F006268904201D9012070BD0B0678
:1023900001F00F01C1EBC10104EB81014FF001021B
:1023A0004FF0000503D581F83D203C3103E081F872
:1023B000FD5101F5FE718D70087094F8BC03012881
:1023C00008D084F8BC23206805F0ACFB84F8BC532B
:1023D000002070BD022070BD01F00F01C1EBC101F2
:1023E00000EB8100D0F8140270472DE9F04104465B
:1023F0000F0601F00F00C0EBC00104EB81014FF0AC
:1024000001064FF0000503D581F83D603C3103E043
:1024100081F8FD5101F5FE7108708A60CB704A7831
:1024200002B1C880022B00D10D7194F8BC030128C1
:1024300009D084F8BC63206805F0E8F8284684F8E1
:10244000BC53BDE8F0810220FBE770B50C4601F0FB
:102450000F05C5EBC50100EB8101C1F81032C1F8D1
:1024600008220023C1F8143281F8FD3181F8FC51B3
:10247000036901F5FE71012B00D10A612207027C7C
:10248000006803D005F0A6FB002070BD05F092FAAD
:10249000FAE770B504460D4601F00F006168884206
:1024A00001D9012070BD29064FF000064FF001024E
:1024B00007D5C0EBC00104EB810181F83D203C3120
:1024C00007E0C5EBC50104EB810181F8FD6101F571
:1024D000FE718A70087094F8BC03012807D084F854
:1024E000BC23206805F04AFB280702D007E0022041
:1024F00070BD217C04F57172206805F0E7FA84F85C
:10250000BC63002070BD70B50C4601F00F05C5EB33
:10251000C50100EB81010B658A6400234B65012333
:1025200081F83D3001F83C5F0369012B00D10A615D
:102530002207027C006803D005F04CFB002070BD30
:1025400005F038FAFAE700002DE9FC5F056804465B
:10255000284605F068FC00287ED1206805F08FFC35
:10256000002879D0206805F08AFC800704D520680F
:10257000416901F002014161206805F080FC01031E
:1025800004F571704FF0010A4FF0080B009075D5FB
:102590000026206805F052FC0746DFF808946BE03F
:1025A000F80767D0F1B2206805F061FC8046C007EB
:1025B00007D005EB4611C1F808AB3146204602F0C2
:1025C000C5FE5FEA087032D52068016C00EB46104A
:1025D0000191D0F8081B2269012A019A0FD0F24B11
:1025E0009A4214D1090403D54FF40041C0F8081BE6
:1025F000204600F0C9FA206901280FD013E04A45AF
:1026000005D9090403D54FF40041C0F8081B204642
:1026100000F0BAFA01984845EDD804E0206801219D
:10262000009A05F053FA05EB4611C1F808BB5FEAC2
:10263000C86004D505EB46111020C1F8080B5FEA0D
:1026400088600ED52069012804D120680121009AF4
:1026500005F03CFA202100E0A1E105EB4610C0F8AE
:10266000081B5FEA884005D505EB46104FF4005182
:10267000C0F8081B7F08761C002F91D1206805F058
:10268000FEFB40034FF000095FD5206805F0CFFB4B
:102690000746002657E0F80753D0F1B2206805F04E
:1026A000D4FB8046C00726D006F00F020AFA02F0DB
:1026B000D5F834288243C5F8342805EB4610C0F815
:1026C00008A92069012807D1C6EBC60004EB8000E9
:1026D000D0E9112111448164F1B22046FFF711FEC7
:1026E0002069012807D136B9206D20B92068012161
:1026F000009A05F0EBF95FEA087003D505EB461187
:10270000C1F808B95FEAC86004D505EB461110208E
:10271000C1F808095FEA486004D505EB461040217E
:10272000C0F808195FEA887004D505EB461002214D
:10273000C0F808195FEA086003D53146204602F068
:1027400073FE7F08761C002FA5D1206805F097FB4B
:10275000002811DAD5F8040820F00100C5F80408B3
:1027600094F8F40301282BD0204600F0F1F92068FA
:10277000416901F000414161206805F080FB0005DE
:102780000BD5D5F80808C00702D0204600F024FA7F
:102790002068416901F400614161206805F06FFB28
:1027A000C00461D5D5F8040820F00101C5F804186B
:1027B0001021206805F018FB00214FF67F321AE047
:1027C00084F8F49300212046FFF770FDCFE700BFA7
:1027D00005EB4110C0F80829D0F8003923F40013A4
:1027E000C0F80039C0F8082BD0F8003B23F40013E0
:1027F000C0F8003B491C60688842E9D8D5F81C083D
:1028000040F00111C5F81C18206B002828460DD097
:10281000D0F8840840F00B00C5F88408D5F84408C7
:1028200040F00B012846C5F844180DE0D0F8140814
:1028300042F22B010843C5F81408D5F8100840F0FF
:102840000B012846C5F81018D0F8000820F4FE61E6
:10285000C5F80018217C2068009A05F037F9206837
:10286000416901F480514161206805F008FB800452
:1028700015D5206804F00AFF206805F0C7FAE0606B
:1028800000F05AFA0146227B206805F033FB20460F
:1028900000F048F92068416901F400514161206865
:1028A00005F0EDFAC00634D52068816921F01001E9
:1028B00081612F6A07F00F00C0EBC00004EB8006B7
:1028C000C7F3434006F5FE76022802D0062811D051
:1028D0001AE047F6F070074216D0C7F30A121746FF
:1028E0002846F16805F0CFFAF0683844F060B06926
:1028F000384408E008222846009905F0C4FAB06977
:10290000C7F30A110844B0612168886940F01000DB
:102910008861206805F0B3FA000707D5204600F06B
:102920001BF92168486900F008004861206805F03B
:10293000A6FAC00208D50021204600F037F8216829
:10294000486900F480104861206805F098FA800218
:1029500008D50021204600F02DF82168486900F4D0
:1029600000104861206805F08AFA400007D520462B
:10297000FFF7C3FC2068416901F080414161206894
:1029800005F07DFA40070AD520684568680702D53A
:102990002046FFF7C9FC2068416829434160BDE833
:1029A000FC9F00000A30544F0A31544FD0F8040401
:1029B00004F0B4BBD0F8040404F0B2BB2DE9F0413C
:1029C0008AB0040005D094F8BD032668002520B124
:1029D00008E001200AB0BDE8F08184F8BC5320462D
:1029E00000F05EF8032084F8BD03F06BC00500D44E
:1029F0002561206804F0D8FF04F1100128228846E0
:102A00006846FDF70EFC94E80F0004F059FE02261C
:102A1000C8BB0021206805F044FA002001270EE021
:102A2000C0EBC00104EB810181F83D7001F83C0F5F
:102A3000C880CD708D60CD60401CC0B24D616168B2
:102A40008142EDD8002011E0C0EBC00104EB810110
:102A500081F8FD5181F8FC0181F8FF51C1F8045261
:102A6000C1F80852401CC0B2C1F8105261688142DE
:102A7000EAD8282241466846FDF7D3FB94E80F00C8
:102A800004F0CCFE10B184F8BD63A2E784F838509E
:102A900084F8BD73206804F0B5FE00209AE70000BA
:102AA00010B586B0044614216846FDF7E1FB2068A6
:102AB000B0F1A04F2FD119480021026842F0010265
:102AC0000260006800F0010005904FF4C0500090D3
:102AD0000220CDE90101032003900A2004906946F9
:102AE0000F48FFF761F90D48001D016841F08001B2
:102AF00001600A481430016841F4804101600068B7
:102B0000002200F48040059011464320FFF79CFB13
:102B10004320FFF78BFB06B010BD000030380240A9
:102B20000000024070B50446C068012570B102285B
:102B300001D0FEF7DCFC2946D4F8040404F041FB84
:102B4000D4F80404BDE8704004F001BB0025F2E7AE
:102B5000D0F8040404F023BBD0F8040404F025BB2F
:102B600010B5044690F8BC0301280BD0012084F86E
:102B7000BC0384F83810206805F0AAF9002084F816
:102B8000BC0310BD022010BDD0F8042400F5717103
:102B9000104604F022BB10B50446006894F8BC133C
:102BA000012906D0012184F8BC13A16A012902D0B1
:102BB00008E0022010BDA169012903D0816B41F416
:102BC00080318163206804F011FE206805F0F6F87A
:102BD000002084F8BC0310BD10B50446D0F80404EE
:102BE00004F03AFB2068D0F8001E41F00101C0F863
:102BF000001E206A002804D00248016841F0060146
:102C0000016010BD10ED00E02DE9F0470E46050013
:102C100065D0DFF81481D8F80000F7B200F00F009B
:102C2000B04207D288F80070D8F8000000F00F001A
:102C3000B04254D128683D4C810712D5400703D5D6
:102C4000206840F4E05020602878000703D5206811
:102C500040F4604020602068A96820F0F00008433C
:102C600020602878C0072DD03049686808390128CD
:102C700012D0022813D0032811D00968890700292F
:102C80002DDA216821F0030101432160FFF770F97B
:102C9000814641F2883A0EE009688903EFE7096846
:102CA0008901ECE7FFF764F9A0EB0901514502D96E
:102CB0000320BDE8F0872068696800F00C00B0EBE5
:102CC000810FEFD1D8F80010404601F00F01B1425A
:102CD00007D90770006800F00F00B04201D0012052
:102CE000E7E72878400705D52068E96820F4E05038
:102CF000084320602878000706D52068296920F459
:102D0000604040EAC100206000F03CF82168084AB9
:102D1000C1F30311515CC840064908600020FFF769
:102D20004DFA0020C5E70000003C02400838024090
:102D3000949900087800002001480068704700005E
:102D4000780000200448054900680968044AC1F376
:102D50008221515CC840704778000020083802404A
:102D6000A49900080448054900680968044AC1F3A9
:102D70004231515CC840704778000020083802405A
:102D8000A4990008154810B5006810F00C0214480A
:102D900013D01449042A0FD0082A0ED10F4C241F37
:102DA0002268236802F03F025B0207D52068C0F367
:102DB0008810A0FB010106E0084610BD2168C1F3A0
:102DC0008811A1FB00010023FDF7FAF92168C1F386
:102DD0000141491C4900B0FBF1F010BD0838024028
:102DE0000024F40040787D012DE9F84F050076D0ED
:102DF0002878DFF8F8B2BE4CC00749D0DBF80010E5
:102E00005846C1F38101012908D00068C0F3810050
:102E100002280AD1201D0068400206D520688003E0
:102E200036D568680028E2D032E06868B0F5803FA7
:102E300010D0B0F5A02F206810D020F48030206092
:102E4000206820F4802020606868A0B1FFF790F827
:102E500006460CE0206840F48030F4E740F480201F
:102E60002060F7E7FFF784F8801B642873D8206898
:102E70008003F7D50CE0FFF77BF8064605E000BFBE
:102E8000FFF776F8801B6428F0D820688003F7D419
:102E90002878DFF8608280074FF000093ED5DBF824
:102EA0000010584611F00C0F09D00068C0F38100E3
:102EB00002280BD18D48001F0068400206D420680C
:102EC000800715D5E868012809D111E0E868B8B194
:102ED0000120C8F80000FFF74BF8064605E002E1C4
:102EE000FFF746F8801B0228C0D820688007F7D576
:102EF0002068296920F0F80040EAC10020600DE058
:102F0000C8F80090FFF734F8064604E0FFF730F801
:102F1000801B02281FD820688007F7D42878000774
:102F200022D5724E744869696C3671B10121016015
:102F3000FFF71EF8074604E0FFF71AF8C01B022847
:102F400009D830688007F7D50EE0C0F80090FFF789
:102F50000FF8074605E083E0FFF70AF8C01B0228D8
:102F60007ED830688007F7D42878400768D5DFF826
:102F70007CA100270AF1380ADAF80000C0000BD45F
:102F8000DAF8001041F08051CAF80010DAF80000B9
:102F9000012700F080500090584E3068C00510D4D2
:102FA000306840F480703060FEF7E2FF009005E08A
:102FB000FEF7DEFF0099401A022851D83068C0059C
:102FC000F6D54A4EA868683601280FD00528306823
:102FD00010D020F001003060306820F00400306034
:102FE000A868B8B1FEF7C4FF00900FE0306840F069
:102FF0000100F4E740F004003060F7E7FEF7B8FFA7
:103000000099411A41F28830814264D830688007C3
:10301000F4D50EE0FEF7ACFF009007E0FEF7A8FF46
:103020000099411A41F28830814254D830688007B3
:10303000F4D42FB1DAF8001021F08051CAF8001052
:10304000A869C0B3DBF80010C1F3810102294AD09E
:103050000228484607D0C8F86000FEF789FF00E064
:1030600039E005463AE04746C8F86000FEF780FFC1
:10307000064604E0FEF77CFF801B02282BD8206860
:103080008001F7D4D5E907010843A96A1C4A490819
:1030900002EB01416A6A41EA8211084395F82C105B
:1030A00040EA01611148001F016001203866FEF707
:1030B0005FFF054605E014E0FEF75AFF401B0228BB
:1030C00009D820688001F7D50BE000BFFEF750FF5C
:1030D000401B022802D90320BDE8F88F2068800138
:1030E000F4D40020F8E70120F6E700000838024099
:1030F0000038024000004742800E47420070004006
:103100000000FFFF70B5040005D00025A56294F80B
:10311000510010B106E0012070BD84F850502046E7
:1031200000F030F8022084F851002068016821F096
:1031300040010160D4E901010843D4E903121143BD
:10314000084361690843218B01F400710843E16978
:103150000843216A0843A16A084321680860A069FE
:10316000042101EA1040616A084321684860206830
:10317000C16921F40061C1616565012084F85100D5
:10318000002070BD10B586B0044614216846FDF7D6
:103190006FF814492068884221D113480021026841
:1031A00042F480420260006800F4804005900E48BE
:1031B0001038026842F002020260006800F002006B
:1031C00005904FF4604000900220CDE901010320FA
:1031D00003900520049069460448FEF7E5FD06B01B
:1031E00010BD00000038004040380240000402409A
:1031F00010B5401EB0F1807F01D3012010BD4FF00B
:10320000E02460610F21601705F0FDFA0020A06145
:1032100007202061002010BD7047704710B590F85E
:103220003C20012A22D0012280F83C20CA688C6808
:1032300022F4407222434C6822F4806222430C68DC
:1032400022F4006222430C6922F4805222434C692A
:1032500022F400522243C969002322F480420A4327
:1032600001684A6480F83C30002010BD022010BD87
:1032700070B590F83C20012A19D0012400F83C4F89
:103280000222427050F83C3C5A689D6822F0700659
:103290000A684968324325F0800529435A6050F88E
:1032A0003C2C9160447000210170084670BD0220E2
:1032B00070BD10B5040003D094F83D0010B107E0D4
:1032C000012010BD002084F83C00204600F00CF8DE
:1032D000022084F83D00211D206802F021FD01201C
:1032E00084F83D00002010BD08B5154A0168154856
:1032F00091420ED1016841F0020101600068002294
:1033000000F00200009011461D20FEF79DFF1D20D9
:1033100010E00D4A914211D1016841F004010160B1
:103320000068002200F00400009011461E20FEF705
:103330008BFF1E20BDE80840FEF778BF08BD0000E7
:103340000004004040380240000800400168CA689C
:1033500042F00102CA600068816801F00701062995
:1033600003D0016841F0010101600020704770B591
:10337000044690F83C00012817D0012584F83C5001
:10338000022084F83D002068826822F0770222F44F
:103390007F4282600868502830D00DDC20284DD054
:1033A00005DC98B310283BD148E0022070BD3028DE
:1033B00044D0402834D139E0602828D0702806D085
:1033C000B0F5805F2CD0B0F5005F29D10AE0CB6862
:1033D000D1E90121206802F014FD2068816841F0E4
:1033E000770109E0CB68D1E90121206802F009FDED
:1033F0002068816841F48041816011E0CA684968B1
:10340000206802F0D3FD5021206807E016E0CA686A
:103410004968206802F0DBFD6021206802F0FBFCB7
:1034200084F83D50002084F83C0070BDCA684968AB
:10343000206802F0BBFD40212068EFE722680146CA
:103440001046EBE7704770B50446006801694FF01D
:103450000005C943890715D4C168C943890711D438
:10346000E91E0161012020772068806980072046DD
:1034700002D0FFF7E7FF04E000F0EAF8204600F092
:1034800085F9257720680169C943490717D4C168C0
:10349000C943490713D46FF004010161022020776A
:1034A0002068806910F4407F204602D0FFF7CAFFF1
:1034B00004E000F0CDF8204600F068F92577206898
:1034C0000169C943090716D4C168C943090712D461
:1034D0006FF008010161042020772068C06980072F
:1034E000204602D0FFF7AEFF04E000F0B1F820461E
:1034F00000F04CF9257720680169C943C90617D443
:10350000C168C943C90613D46FF0100101610820D6
:1035100020772068C06910F4407F204602D0FFF772
:1035200091FF04E000F094F8204600F02FF9257791
:1035300020680169C943C90708D1C168C943C907DF
:1035400004D1891E0161204600F044F92068016918
:10355000C943090609D4C168C943090605D46FF0F7
:10356000800101612046FFF757FE20680169C943C9
:10357000490609D4C168C943490605D46FF0400122
:103580000161204600F027F920680169C9438906D6
:103590000BD4C168C943890607D46FF020010161CB
:1035A0002046BDE87040FFF738BE70BD70B586B0EC
:1035B000044614216846FCF75BFE204A216800247B
:1035C0001F480225012691420FD1016841F01001E8
:1035D00001600068694600F0100005904FF4D44087
:1035E0000090CDE90154174822E0B1F1804F23D17A
:1035F000016841F001010160016801F001010591DC
:10360000016841F00201016000680095CDE90154B4
:1036100000F00200CDE90460694603940A48FEF711
:10362000C3FB4FF440600090CDE901540748694660
:10363000CDE90346FEF7B8FB06B070BD00000140BF
:1036400030380240001002400000024000040240F6
:10365000704770B5044690F83C000D4601280DD027
:10366000012684F83C60022084F83D0042B1042A1F
:1036700018D0082A2AD00C2A4DD139E0022070BD7A
:10368000206802F0D1FB2068816941F00801816166
:103690002068816921F004018161206881692A69BB
:1036A000114311E0206802F0EFFB2068816941F4CA
:1036B000006181612068816921F4806181612068F5
:1036C00081692A6941EA0221816124E0206802F0CF
:1036D00011FC2068C16941F00801C1612068C1691D
:1036E00021F00401C1612068C1692A69114311E018
:1036F000206802F033FC2068C16941F40061C161B7
:103700002068C16921F48061C1612068C1692A69AA
:1037100041EA0221C16184F83D60002084F83C0048
:1037200070BD10B5040003D094F83D0010B107E05F
:10373000012010BD002084F83C00204600F00CF869
:10374000022084F83D00211D206802F0E9FA0120E2
:1037500084F83D00002010BD08B500680949884282
:1037600001D1094804E0B0F1804F09D10648001F9B
:10377000016841F001010160006800F00100009063
:1037800008BD0000000001404438024070470000BE
:1037900010B504460068012202F026FB0B492068A0
:1037A000884202D00A49884203D1416C41F4004169
:1037B00041642068816801F00701062903D001688F
:1037C00041F001010160002010BD00000000014037
:1037D000000401407047704710B504460068416915
:1037E00094F83920C1F3C011212A0BD151B141699C
:1037F00021F080014161206B08B1FEF7F3F820460B
:1038000002F0E4FC2068416994F83A20C1F3801189
:10381000222A0BD151B1416921F040014161606B15
:1038200008B1FEF7DFF8204602F0C2FC002010BD10
:103830007047000070B5026804461068D16853698B
:1038400010F00F0F50D003F0010501F490763543CE
:103850005DD0C20705D0CA0503D5E26B42F0010274
:10386000E263420705D5DA0703D0E26B42F00202B9
:10387000E263820705D5DA0703D0E26B42F0040267
:10388000E263020705D5DA0703D0E26B42F00802D3
:10389000E263E26B002A33D0800604D5880602D5A5
:1038A000204602F09CFC20684069E16BC0F3801068
:1038B000090700D428B3204602F07AFC2068416949
:1038C00049061AD5416921F040014161606BA0B100
:1038D0001B490165606BFEF7CCF8002810D0606BC7
:1038E000016DBDE870400847830610D58B060ED5E4
:1038F0002046BDE8704002F072BC2046FFF798FFFA
:1039000070BD2046FFF794FF0020E06370BD030602
:1039100006D50B0604D52046BDE8704002F000BE77
:103920004006F3D54806F1D5D168204621F0400184
:10393000D160202184F8391000F000FB70BD000038
:10394000D960000870B5040004D094F8390000254F
:1039500010B106E0012070BD84F83850204600F018
:1039600023F8242084F839002068C16821F400512C
:10397000C160204602F07EFC2068016921F490417C
:1039800001612068416921F02A0141612068C16814
:1039900041F40051C160E563202084F8390084F8C7
:1039A0003A00002070BD00002DE9F04F87B00446BA
:1039B00014216846FCF75CFCFF48DFF8F8831038F8
:1039C000D4F800C0FC4B0121022203270025061574
:1039D0004FF0080B4FF0400A4FF00069C4456CD11E
:1039E000D3F800C04CF4002CC3F800C01B6803F4EB
:1039F00000230593036843F001030360036803F0A9
:103A000001030593036843F0040303600068029117
:103A100000F0040005900220CDE900100320CDE95C
:103A2000030B88465F466946E448FEF7BDF970001F
:103A300000900220CDE901080320CDE90307694683
:103A4000DF48FEF7B1F9DFF88083DE4940464F4694
:103A5000C0E90356C8F81450C8F81850C8F81C50EC
:103A6000C8F8205088E88204C8F82450FEF7E4F82B
:103A700008B1FDF73CFDD44DD248C4F83080603524
:103A80003038C8F83840C5E900070020A860C5E90B
:103A900003066861A861E861286268622846FEF74B
:103AA000CBF808B1FDF723FD6563002211463420F1
:103AB000AC63FEF7C9FB342050E0DFF81083C44547
:103AC00051D1D3F800C04CF4801CC3F800C01B686F
:103AD00003F480130593036843F004030360036851
:103AE00003F004030593036843F0080303600068D0
:103AF000884600F0080005904FF4805000900220A6
:103B0000CDE90108CDE9037B6946AD48FEF74CF9E4
:103B1000042000900220CDE90108CDE9037B69462D
:103B2000AB48FEF741F9A84FA648C0374830C7E96F
:103B300003567D61BD61FD613D627D6287E80106DE
:103B40003846FEF779F808B1FDF7D1FC276300226B
:103B500011463520BC63FEF777FB3520FEF766FB88
:103B600007B0BDE8F08FDFF86C824FF0070EC44558
:103B700039D1914B1B1DD3F800C04CF0100CC3F889
:103B800000C01B6803F010030593036843F00103B2
:103B90000360006802AB00F00100059083E88240FA
:103BA0004FF4C060CDE9000269468448FEF7FCF896
:103BB0008A4F89483860C7E90195C7E903567D6196
:103BC000BD61FD613D6238467D62FEF735F808B1A2
:103BD000FDF78DFC6763002211462520BC63FEF7CC
:103BE00033FB2520BAE7DFF8F881C4454ED1D3F87E
:103BF00000C04CF4003CC3F800C01B6803F4003361
:103C00000593036843F00103036000680DF10808A1
:103C100000F00100059088E882400C20CDE9000208
:103C200069466648FEF7C0F86C4F6648603730302A
:103C3000C7E903567D61BD61FD613D627D6287E834
:103C400001063846FDF7F8FF08B1FDF750FC276381
:103C5000BC63624F5B48C03718303860C7E90195D4
:103C6000C7E903567D61BD61FD613D6238467D62F5
:103C7000FDF7E2FF08B1FDF73AFC67630022114649
:103C80002620BC63FEF7E0FA262067E7DFF85481C0
:103C9000C4454ED1D3F800C04CF4802CC3F800C00A
:103CA0001B6803F480230593036843F00803036053
:103CB00000680DF1080800F00800059088E88240CF
:103CC0004FF44070CDE9000269464148FEF76CF8B8
:103CD0003C48454F48383860C7E90195C7E9035665
:103CE0007D61BD61FD613D6238467D62FDF7A4FFE7
:103CF00008B1FDF7FCFB6763BC633B4F314860379D
:103D00001838C7E903567D61BD61FD613D627D6282
:103D100087E801063846FDF78FFF08B1FDF7E7FB9E
:103D20002763002211462720BC63FEF78DFA272067
:103D300014E72E4B9C457FF413AF1F4B1B1DD3F88C
:103D400000C04CF0200CC3F800C01B6803F0200337
:103D50000593036843F004030360006802AB00F0BE
:103D60000400059083E88208C020CDE9000269467E
:103D70001348FEF719F81C4F1748C0371838386039
:103D80004FF02068C7E90185C7E903567D61BD6131
:103D9000FD613D6238467D62FDF74EFF08B1FDF7DB
:103DA000A6FB6763BC63124F0B48C7E9035660303C
:103DB0007D611FE0004C004040380240000002409E
:103DC00000080240706002405C0600200050004085
:103DD000000C024000100140406402407C070020BB
:103DE00000440040004800409C08002000140140AE
:103DF000BC090020BD61FD613D627D6287E801056F
:103E00003846FDF719FF08B1FDF771FB2763002263
:103E100011464720BC63FEF717FA47209EE60000D4
:103E2000F8B5044690F83A0020283CD1C1B3BAB3A3
:103E300094F83800012836D0012084F83800A162B7
:103E4000A2850025E563222084F83A00636B1748B9
:103E5000D863636B16481864636B1648D864606B4C
:103E6000134605650846666B216802463046091D03
:103E7000FDF74CFF206801684168009184F83850D4
:103E8000C16841F48071C1602068416941F001015D
:103E900041612068416941F0400141610020F8BD65
:103EA000FFE70120FBE70220F9E70000336100088B
:103EB0006F610008E96000087047704770B50446FC
:103EC00090F83900202830D169B362B394F83800F3
:103ED00001282AD0012084F838002162A284E284DB
:103EE0000025E563212084F83900236B1048D8634E
:103EF000236B10481864236B0F48D864206B13465B
:103F000005652668206B321DFDF700FF21686FF004
:103F10004000086084F838502068416941F0800111
:103F20004161002070BD012070BD022070BD000005
:103F300079610008A7610008E960000870477047D0
:103F400008B502F085FB01F0E3F901F0BFFAFDF7D7
:103F50009DFB05F0AFF801F0EFFD05F0F7F900F07B
:103F600027FD00F019FD0948FFF7F0F900F0BCFA51
:103F700048F2304000210090B423A022084600F00F
:103F800093FA03490120087008BD00009C0400203A
:103F900060020020FEE7000070B5354D354C2DED78
:103FA000028BB0EE408AE868B0F9071000EE101AF4
:103FB000B8EEC00A84ED8E0A30F9051F00EE101A23
:103FC000B8EEC00A84ED9F0AB0F9021000EE101A94
:103FD0002949B8EEC00AD1ED000A30EE600A84ED3E
:103FE000B00AB0F90020D1ED010A00EE102AB8EEB7
:103FF000C00A30EE600A84EDC10AB0F9022000EE7A
:10400000102AB8EEC00A81ED000AB0F9000000EEF7
:10401000100AB8EEC00A81ED010AB0EE480A286A1B
:1040200004F0B6F8B0EE480AE86904F0B1F8E869BF
:1040300090ED030A84EDAF0A286A90ED030A04F5B7
:104040003B7084EDC00AB0EE480A04F0A1F8B0EE6F
:10405000480A04F52A7004F09BF8D4EDBE0A94EDEA
:10406000AD0ABDEC028BBDE8704005F0F9BA000066
:10407000043D00209C3700201C03002008480168F4
:1040800021F440410160016841F480410160016810
:1040900021F440510160016841F480510160704792
:1040A0000004024030B50D46044600F0E5F8204615
:1040B00000F0B2F800F030F8284600F0ADF800F05B
:1040C0002BF800F0D9F8601C00F0A6F800F024F8F6
:1040D00000F04CF80446002000F06EF800F0F2F812
:1040E000E0B230BD30B514460D46034600F0C4F8CA
:1040F000184600F091F800F00FF8284600F08CF810
:1041000000F00AF8204600F087F800F005F8BDE856
:10411000304000F0D7B80000124810B5016821F413
:10412000404101600F4C1434206840F04000206092
:104130000D4B211F0AE01878401CC0B218700528EA
:1041400004D900F0BFF80020187002E008680006EB
:10415000F1D4206820F040002060BDE8104001202C
:1041600004F048BF000402400402002030B51148AA
:104170000023016821F4404101600E4A08241432F2
:10418000151F11E0106840F0400010605806030E43
:104190002868000601D543F00103106820F04000B4
:1041A0001060012004F026FF641EE4B2EAD2184633
:1041B00030BD00000004024010B5164B04461868DC
:1041C00040F480401860134A1432106820F0400018
:1041D0001060012004F00EFF1068C4B120F08000D0
:1041E0001060012004F006FF106840F040001060ED
:1041F000012004F0FFFE106820F040001060012054
:1042000004F0F8FE186820F44040186010BD40F03B
:104210008000E5E70004024030B5164B04461868FC
:1042200040F480401860134A082514321AE0200632
:10423000106802D540F0800001E020F0800010609E
:104240006400012004F0D6FE106840F040001060C9
:10425000012004F0CFFE106820F040001060012023
:1042600004F0C8FE6D1EEDB2E1D2186820F44040A3
:10427000186030BD00040240114800B5016841F4E7
:10428000804101600E4A1432106840F080001060D6
:10429000106840F040001060012004F0ABFE106890
:1042A00020F080001060012004F0A4FE106820F0CF
:1042B0004000106001205DF804EB04F09BBE00009C
:1042C000000402400F4800B5016841F480410160DC
:1042D0000C4A1432106820F040001060106820F082
:1042E00080001060012004F085FE106840F040005E
:1042F0001060012004F07EFE106840F08000106025
:1043000000BD0000000402400648B7EE000A80ED40
:10431000000A9FED050A80ED010A80ED020A80ED9A
:10432000030A7047C801002000000000F0B5002318
:104330000A24302537261F4611E000BFB4EB107F5A
:1043400002D905EB107C01E006EB107C01F813C0EC
:1043500001EB430C00015B1C8CF80170DBB2934253
:10436000ECD3F0BD70B5354C2DED028B20780028D4
:1043700061D0002020706068401C0321B0FBF1F286
:10438000606001FB120028B99FED2D0AFDF7B0F81F
:1043900000F0AAFE2079400702D12A48FDF7D0F9A3
:1043A00060680B21B0FBF1F201FB120010B90B2089
:1043B000FCF7ACFF60680A25B0FBF5F105FB1100C6
:1043C00048B99FED218AB0EE480A03F091FEB0EEA5
:1043D000480A05F02DF860681421B0FBF1F201FBEA
:1043E000120088B99FED198AB0EE480A04F034F93A
:1043F000B0EE480A04F0A2F8B0EE480AFCF774FAEE
:10440000B0EE480A01F0B2F86068B0FBF5F105FBC8
:10441000110020B901F0CAF9002004F069FE05F08E
:1044200065FA01F0EDF901F04DFABDEC028BBDE843
:10443000704004F09BBDBDEC028B70BD00000020FD
:10444000A69B443B182300200AD7233C0AD7A33C51
:104450002DE9F04107461C4615460E462A2000F07D
:104460005BFA7F1CB8B200F04CFA6D1CA8B200F0E9
:1044700048FA2B2000F050FA1A36B0B200F041FA98
:104480001A34A0B200F03DFABDE8F0412C2000F053
:1044900043BA10B514460B460246FFF7D9FF204633
:1044A000BDE8104000F02DBA2DE9F04780461F46C8
:1044B000581E83B21646501E82B20C464046DDF8A6
:1044C0002090FFF7C5FF0AE0454604E0484600F0AB
:1044D00018FA6D1CADB2B542F8D3641CA4B2BC424C
:1044E000F2D3BDE8F087000010B5934C00224021C4
:1044F0002046FDF738FD6420FDF744FC01224021F1
:104500002046FDF730FD6420FDF73CFC0122102120
:104510002046FDF728FD6420FDF734FC112000F053
:10452000FBF97820FDF72EFCB12000F0F5F905200D
:1045300000F006FA3C2000F003FA3C2000F000FAFC
:10454000B22000F0E9F9052000F0FAF93C2000F073
:10455000F7F93C2000F0F4F9B32000F0DDF9052074
:1045600000F0EEF93C2000F0EBF93C2000F0E8F917
:10457000052000F0E5F93C2000F0E2F93C2000F0D5
:10458000DFF9B42000F0C8F9032000F0D9F9C02009
:1045900000F0C2F9AB2000F0D3F90B2000F0D0F905
:1045A000042000F0CDF9C12000F0B6F9C52000F0DC
:1045B000C7F9C22000F0B0F90D2000F0C1F90020C9
:1045C00000F0BEF9C32000F0A7F98D2000F0B8F983
:1045D0006A2000F0B5F9C42000F09EF98D2000F0AB
:1045E000AFF9EE2000F0ACF9C52000F095F90F20EE
:1045F00000F0A6F9E02000F08FF9072000F0A0F904
:104600000E2000F09DF9082000F09AF9072000F034
:1046100097F9102000F094F9072000F091F902209A
:1046200000F08EF9072000F08BF9092000F088F9DE
:104630000F2000F085F9252000F082F9362000F0E7
:104640007FF9002000F07CF9082000F079F90420BF
:1046500000F076F9102000F073F9E12000F05CF929
:104660000A2000F06DF90D2000F06AF9082000F032
:1046700067F9072000F064F90F2000F061F90720C6
:1046800000F05EF9022000F05BF9072000F058F915
:10469000092000F055F90F2000F052F9252000F014
:1046A0004FF9352000F04CF9002000F049F90920BD
:1046B00000F046F9042000F043F9102000F040F922
:1046C000FC2000F029F9802000F03AF93A2000F0AF
:1046D00023F9052000F034F9362000F01DF9782088
:1046E00000F02EF9212000F017F9292000F014F92C
:1046F0002A2000F011F9002000F022F91A2000F021
:104700001FF9002000F01CF9692000F019F92B2096
:1047100000F002F9002000F013F9012000F010F978
:10472000002000F00DF9A02000F00AF9BDE81040CB
:104730002C2000F0F1B80000000C02402DE9FF4FE2
:1047400081B00446DDF83C9000904FEA59074FF0E5
:104750000008780700D0012000EBD70000FB09FB20
:10476000203AD0B20390029802994844401E83B286
:10477000E019401E82B22046FFF76AFE002553E092
:10478000B9F10C0F2AD0B9F1100F2ED0B9F1180FD2
:104790002ED0B9F1200F49D12749039801EB8010A1
:1047A000002610F805A0109800284FF0010000FA2C
:1047B00006F000EA0A0022D020B12046049A0299AD
:1047C000FFF767FE641C0098A4B2201AB84225D1F6
:1047D0000298009C401C80B2029023E00398174985
:1047E00000EB400001EB8000DAE71549039803E095
:1047F0000398144900EB400001EB0010D0E708B12A
:10480000049800E00E9800F07CF808F10100C0B2B6
:10481000B0FBF7F1804607FB118050B1761CF6B271
:10482000082EC0D36D1CADB25D45A9D305B0BDE85F
:10483000F08F4FF00008F5E7E0B50008AC990008EC
:10484000209E000810A400082DE9FF4F83B0002629
:10485000DDE9128A1D4681464FEA58073446DDF8E5
:1048600044B02CE0281B401EC1B20A2004F05EFDBB
:104870000599B1FBF0F00A21B0FBF1F201FB120047
:1048800026B9691E8C4201DA58B101263030CDF8C4
:1048900000B0C2B2CDE9018A04FB079080B2109B40
:1048A00008E0CDF800B0CDE9018A04FB0790109B29
:1048B00080B220220499FFF741FF641CE4B2AC42AD
:1048C000D0D307B0BDE8F08F2DE9FE4F9946DDE962
:1048D0000D6714468A460546DDF830800CE0CDF8B9
:1048E00000804B4651462846CDE90167FFF726FF79
:1048F00005EB560085B2641C2278002AEFD1BDE892
:10490000FE8F10B50446000A00F01AF8E0B2BDE8C8
:10491000104000F015B8000070B5084C05460022A4
:1049200080212046FDF71FFB284600F009F82046AD
:10493000BDE8704001228021FDF715BB000C02404C
:1049400070B5144E0546002220213046FDF70BFBC2
:104950000024002210213046FDF705FB280601D572
:10496000012200E0002208213046FDF7FCFA012276
:1049700010213046FDF7F7FA6806641C050EE4B214
:10498000082CE6D33046BDE8704001222021FDF717
:10499000EABA000000040240044802210122C1706A
:1049A0008270817101714171704700009601002091
:1049B0002DE9F041FFF762FB264C0027264E677673
:1049C0003D467521D020FFF76DFB30706420FDF768
:1049D000D9F96D1C052DF4DB3078682803D02776D3
:1049E0000020BDE8F0810125657680226B21D02072
:1049F000FFF778FB3220FDF7C5F92A461921D020B0
:104A0000FFF770FB0520FDF7BDF9032632466B2149
:104A1000D020FFF767FB0520FDF7B4F932461A21D5
:104A2000D020FFF75FFB0520FDF7ACF918263246D2
:104A30001B21D020FFF756FB32461C21D020FFF768
:104A400051FB0520FDF79EF9FCF71CFF25760120A0
:104A5000C7E70000F0220020A00100202D4808B583
:104A6000016841F400110160016801F40011009136
:104A7000016841F4800101600068002200F48000B8
:104A8000009011460C20FDF7DFFB0C20FDF7CEFB5C
:104A9000002211460D20FDF7D7FB0D20FDF7C6FBC8
:104AA000002211460E20FDF7CFFB0E20FDF7BEFBC6
:104AB000002211461020FDF7C7FB1020FDF7B6FBC2
:104AC000002211461120FDF7BFFB1120FDF7AEFBC0
:104AD000002211462F20FDF7B7FB2F20FDF7A6FB84
:104AE000002211463920FDF7AFFB3920FDF79EFB70
:104AF000002211463A20FDF7A7FB3A20FDF796FB6E
:104B0000002211464520FDF79FFBBDE808404520E7
:104B1000FDF78CBB303802402DE9F04F87B01421EF
:104B20006846FBF7A5FB52480024016841F01001DC
:104B30000160016801F010010591016841F08001F8
:104B40000160016801F080010591016841F00101F7
:104B50000160016801F001010591016841F0020165
:104B60000160016801F002010591016841F008014E
:104B70000160016801F008010591016841F004013C
:104B800001600068DFF8EC9000F00400059000225E
:104B900004214846FDF7E7F94FF4865600223146D6
:104BA0003548FDF7E0F9DFF8D4A04FF44167002263
:104BB00039465046FDF7D7F9DFF8C4B04FF4807896
:104BC000002241465846FDF7CEF90122C021504649
:104BD000FDF7C9F9012238212748FDF7C4F904205F
:104BE00000900125CDE90154694648460394FDF73C
:104BF000DBF80820CDE90004694648460294FDF739
:104C0000D3F810208DE8310069464846FDF7CCF80E
:104C10000096CDE90154694617480394FDF7C4F89E
:104C20000097CDE90154694650460394FDF7BCF85E
:104C3000CDF80080CDE90154694658460394FDF74C
:104C4000B3F8C020CDE900050224CDE9025469463D
:104C50005046FDF7A9F83820CDE90005CDE902540A
:104C600069460548FDF7A0F807B0BDE8F08F0000E1
:104C7000303802400010024000040240000C0240A4
:104C8000000802400D4810B50B4901600C49416015
:104C900000214FF480428160C0E9031241618161CB
:104CA000C1610162FDF76AF9002803D0BDE8104038
:104CB000FCF71DBC10BD0000005C0040300300206C
:104CC000A08601000F4810B50D4901604FF48271B4
:104CD000416000218160C1604FF400720161C0E950
:104CE0000512C1610162416281620A21C162FEF75F
:104CF00009FA002803D0BDE81040FCF7F8BB10BD4E
:104D0000003800408403002010B592B000240F94B6
:104D10001C2168461094FBF7ABFA202107A8FBF78B
:104D2000A7FA2D482B490160A721C0E9011440F6DC
:104D3000C311C0E9031444618461FEF7F2FC08B1B9
:104D4000FCF7D5FB0F940FA923481094FEF790FAB7
:104D500008B1FCF7CCFB602000904FF47A70CDE9ED
:104D60000104039404940594002269461A480694A9
:104D7000FEF76FFC08B1FCF7BAFB0422694616483F
:104D8000FEF767FC08B1FCF7B2FB0822694612483F
:104D9000FEF75FFC08B1FCF7AAFB0C2269460E483F
:104DA000FEF757FC08B1FCF7A2FB0794089409949E
:104DB0004FF400500A94CDE90B4007A906480E9421
:104DC000FEF72CFA08B1FCF792FB0348FEF7EEFB66
:104DD00012B010BD00000140DC03002010B58AB005
:104DE000002407941C2168460894FBF741FA1C48EC
:104DF0004FF08041C0E900148460C46004618461A4
:104E0000FEF78FFC08B1FCF772FB079407A9144862
:104E10000894FEF72DFA08B1FCF769FB6020CDE994
:104E200000040294042269460D480494FEF711FC24
:104E300008B1FCF75CFB082269460948FEF709FC4B
:104E400008B1FCF754FB0C2269460548FEF701FC4B
:104E500008B1FCF74CFB0248FEF7A8FB0AB010BDF6
:104E60001C04002010B586B000241748009401945B
:104E7000029403940494134905940160A721C0E9A6
:104E8000011440F2E731C0E903148461FEF711FA1E
:104E900008B1FCF72CFB4FF48050009069460A489B
:104EA000FEF765FA08B1FCF722FB049404A9064852
:104EB0000594FEF7DDF9002801D0FCF718FB06B0D9
:104EC00010BD0000000400405C04002010B586B056
:104ED0000024174800940194029403940494134905
:104EE00005940160A721C0E901144FF47A71C0E96B
:104EF00003148461FEF7DDF908B1FCF7F8FA4FF40A
:104F00008050009069460A48FEF731FA08B1FCF774
:104F1000EEFA049404A906480594FEF7A9F90028BE
:104F200001D0FCF7E4FA06B010BD00000008004014
:104F30009C0400200C4810B50A4901604FF4E1318F
:104F40004160002181600C22C160C0E904128161CE
:104F5000C161FEF7F7FC002803D0BDE81040FCF764
:104F6000C6BA10BD004C0040DC0400200C4810B54F
:104F70000A4901604FF4E1314160002181600C2257
:104F8000C160C0E904128161C161FEF7DBFC002849
:104F900003D0BDE81040FCF7AABA10BD0050004095
:104FA0001C0500200E4810B50C4901600D494160F8
:104FB0004FF4805181604900C160C91001610C212A
:104FC000416100218161C161FEF7BCFC002803D072
:104FD000BDE81040FCF78BBA10BD00000010014086
:104FE0005C050020A08601000C4810B50A4901604C
:104FF0004FF4E1314160002181600C22C160C0E9C1
:1050000004128161C161FEF79DFC002803D0BDE858
:105010001040FCF76CBA10BD004400409C05002015
:105020000C4810B50A4901604FF4E131416000219C
:1050300081600C22C160C0E904128161C161FEF788
:1050400081FC002803D0BDE81040FCF750BA10BD29
:1050500000480040DC0500200C4810B50A490160FA
:105060004FF4E1314160002181600C22C160C0E950
:1050700004128161C161FEF765FC002803D0BDE820
:105080001040FCF734BA10BD001401401C0600208B
:1050900010B500220F49104801F024FF08B1FCF7B9
:1050A00026FA0E490C4802F0FDF808B1FCF71FFA89
:1050B0000B49094801F04CFD08B1FCF718FA064805
:1050C00002F046F9002803D0BDE81040FCF70FBA03
:1050D00010BD0000080000201C0A0020580100201C
:1050E00058000020FEE700002DE9F0417F484FF016
:1050F000FF07A0F102040178CA0700D16770627847
:105100007A4DAD1D012A07D0022A0CD000261F2A95
:1051100021D0FF2A38D1E5E0CA0704D021F00601EA
:1051200001700221617072490A781F21002A0278F9
:105130004FEA427203D0002A03DB617006E0002AC6
:1051400004DA027842F002020270F6E76420288056
:105150006880A880B9E0674ADFF89CC1536863455E
:1051600008D8DFF898E1734504DC1268624501D87D
:1051700072450ADD21F001010170677000F0F0FC5A
:10518000FFF7C2F8A660E660A0E05D48407958B13C
:105190005C48B0F9104000F0D7FB00BF40F252313C
:1051A000002C07DC00220AE057488088A0F57A70BE
:1051B00004B2F3E78C4201DD0A4600E022462A8071
:1051C000002C01DC002304E08C4201DD0B4600E0F2
:1051D00023466B80002C01DC002004E08C4201DDC2
:1051E000084600E02046A880002C01DC002102E0F7
:1051F0008C4200DC2146454C94ED140AD4ED030AA0
:1052000094ED251A70EE601A31EE812A01EE902A93
:10521000F8EEE11A72EE211AFDEEE11A11EE902A73
:1052200070EE201A12B22A8031EEC12A01EE903AB5
:10523000642AF8EEE11A72EE211AFDEEE11A11EE7F
:10524000903A70EEC01AB1EE400A1EB230EE600A1B
:1052500031EE812A01EE900A6E8070EE410AF8EE7E
:10526000E11A00EE101A72EE211AB8EEC00AFDEE35
:10527000E11A30EE800A11EE900ABDEEC00A03B2C8
:10528000AB8010EE100A01B2E9804FF47A7001DCB5
:10529000642202E0824200DD02462A80642E01DCA4
:1052A000642602E0864200DD06466E80642B01DC47
:1052B000642302E0834200DD0346AB80642901DC05
:1052C000642002E0814200DC0846E880B5F906303F
:1052D000B5F90420B5F90210B5F90000BDE8F041B8
:1052E00002F026BF012060704CE700006A02002037
:1052F0007802002018230020000020C20000204275
:10530000A02300201C3B0020803B00209C37002075
:1053100010B500210848FEF73BFA04210648FEF7C5
:1053200037FA08210448FEF733FABDE810400C2193
:105330000148FEF72DBA0000DC0300207047000092
:105340000148FDF701B90000B80C00202DE9F0413B
:10535000044600680E46016C00EB4615D5F8080BB4
:10536000276920234FF40042012F08D02C4FB94267
:105370004FD1010449D500BFC5F8082B4DE0DFF837
:10538000A4C05FEA007E04F5717711D5614503D9A9
:10539000000401D5C5F8082B2046FDF7F5FB3A4679
:1053A0000121206802F092FB0820C5F8080B34E0C8
:1053B0005FEA806E02D5C5F8083B2EE010F0280F9A
:1053C0002BD1614501D90004D6D4C6EBC60004EB4D
:1053D0008000D5F8102BD0F80412C2F312028A1AFA
:1053E000C0F81422D0F808221144C0F80812F1B213
:1053F0002046FCF78FFF86B9D4F8100268B93A4608
:105400000121206802F062FB07E0800601D5C5F8A3
:10541000083BF1B22046FCF77DFF0020BDE8F0819B
:105420000A31544F0A30544F2DE9F84F0E46C1EB64
:10543000C60100EB810481460568D4E914103C34B0
:10544000884202D90120BDE8F88F081AA16881427C
:1054500000D20846C01C870805EB46181BE000BFB9
:10546000A0EB010AA068504500D282460AF1030071
:10547000870899F8100000901FFA8AF3F2B22846C4
:10548000E16802F0ABFDE16801EB0A00E060A169B0
:1054900001EB0A00A061D8F8180980B2B84205D320
:1054A000D4E90501814201D20028D9D1D4E905010E
:1054B000884208D806F00F0101208840D5F834183A
:1054C0008143C5F834180020BDE700001E48B2EE45
:1054D000000ADFED1E0A80ED330AC0ED000A9FEDE1
:1054E0001C1AC0ED010A80ED021AB2EE041A80ED1A
:1054F0000D1ABAEE041A80ED0E1A80ED440AC0EDC2
:10550000110AF7EE000AC0ED120ADFED120AC0ED33
:10551000130A80ED550AB0EE000A80ED220A9FEDD5
:105520000E0A80ED240A9FED0D0A80ED310A9FEDF1
:105530000C0A80ED320A9FED0B0A80ED1E0A9FEDEA
:105540000A0A80ED1F0A70479C370020CDCC8C3FA3
:105550008FC2753D0AD7233D000000000000C842FD
:105560000000C8C200004842000048C27F4910B590
:1055700048887D4AA0F2DC50404201EE100AD2ED8C
:10558000040AB8EEC11ADFED7A1A7A4841EE210A10
:10559000C0ED000A098892ED051AA1F2DC514942DA
:1055A00002EE101AF5EEC00AB8EEC22A02EE211A77
:1055B000F1EE10FA80ED011A01DCF1EE600A10EE56
:1055C000902A6D49DFED6D1A8A4201DAC0ED001AAA
:1055D000B5EEC01AF1EE10FA01DCB1EE411A11EE8F
:1055E000102A8A4201DAC0ED011A6549674CB1F907
:1055F000082000EE902A5F4AF8EEE02A0832C2ED59
:10560000002AB1F90A3000EE903A5E4BB8EEE02A7B
:1056100082ED012AB1F90C2000EE902A554AF8EEED
:10562000E04A2032C2ED004AB1F90E1000EE901AA5
:1056300002F10801F8EEE00AC2ED010A90ED001A4D
:1056400071EE623A71EE644AC1ED003A90ED014AA2
:1056500034EE423A34EE604A81ED013A183901F1F4
:10566000080091ED005A35EE625A80ED005A91ED36
:10567000015A35EE425A80ED015A183090ED001A69
:1056800004EE801A80ED001AD0ED010A11EE102A06
:1056900044EE000A9FED3C4A9FED3D0A9A42C0ED60
:1056A000010A02D3B0EE441A05E011EE102AA2421C
:1056B00001DDB0EE401A10EE902A80ED001A9A42F9
:1056C00002D3F0EE440A05E010EE902AA24201DD7A
:1056D000F0EE400AC0ED010AC1ED002ADFED2D2AEF
:1056E00081ED012A9FED2C2A23EEA20A21492B4CA1
:1056F000383101EE020A23EE221A294B00EE821AFB
:1057000010EE102A81ED000AA24281ED011A02D3A7
:10571000BBEE040A05E010EE102A9A4201DDB3EE5A
:10572000040A11EE102A81ED000AA24202D3BBEE58
:10573000041A05E011EE102A9A4201DDB3EE041AB4
:1057400081ED011A0B49403181ED000AB1EE410AA9
:1057500081ED010A13490978002903D1C0ED001A2F
:10576000C0ED011A10BD0000803C0020803B0020ED
:105770009A99993EB00200200000A040000000006D
:10578000242300200000C8C20000C8C20000C84294
:105790000000C8429A99193E8FC2F53D0000A0C191
:1057A0000000A041780200207047000010B5134CA3
:1057B000A068052816D2DFE800F003080D101300DA
:1057C00004F00CF802F0F2FD0CE003F0EDFF02F043
:1057D000C3FD07E004F04CF804E002F043FE01E0F2
:1057E00002F064FEA0680521401CB0FBF1F201FB51
:1057F0001200A060BDE8104002F07ABEEC0100206B
:1058000070B52D4C2D4E4FF480612088401C80B225
:105810002080A27964256AB1012A04D0022A0DD021
:10582000032A0FD101E0002209E0B0FBF5F205FBED
:10583000120038B93046FCF78FFB03E001223046F6
:10584000FCF791FB20794FF4006170B1012804D07E
:1058500002280ED0032810D101E000220AE020889F
:10586000B0FBF5F205FB120038B93046FCF774FBCB
:1058700003E001223046FCF776FB627910484FF4D2
:10588000807162B1012A0ED0022A0ED0032A11D1F2
:105890002288B2FBF5F305FB1322002A0AD1BDE8EA
:1058A0007040FCF759BB002200E00122BDE87040C7
:1058B000FCF759BB70BD000096010020000C0240AF
:1058C000000802402DE9F0411248007800281FD05E
:1058D000114F0025C5EB851000EBC51007EB8004C8
:1058E00094F8400088B104F5C772561C04F14100D9
:1058F000314603F05DFB40B1002084F8400094F88D
:105900008E2131462046FEF7D9FA6D1C062DE1DBCB
:10591000BDE8F081000200205C24002010EE100A97
:10592000F6EE000A074960EE200AA1EB600000EEE7
:10593000100AB7EE081A60EE800A00EEC01A21EED7
:10594000000A7047DF59375FF0B435489FED330ADE
:10595000344B0079344A354948B1587938B1344824
:1059600090ED000A82ED380A90ED010A14E04888B3
:10597000A0F2DC50404200EE900AF8EEE00A60EE41
:10598000800AC2ED380A0888A0F2DC5000EE900AC6
:10599000F8EEE00A20EE800A264882ED490A0078F7
:1059A000C0072CD0888840F21454A04227D923483D
:1059B000CD8840F2A466DFED200A90ED000AB542E2
:1059C00002D930EE600A03E0A54203D230EE200A8D
:1059D00080ED000AD2F86821194C9FED1A0AA24204
:1059E00004DBD0ED000A30EEC00A06E0164CA242FD
:1059F00005D9D0ED000A30EE800A80ED000A088952
:105A0000B0F5966F01D2002003E0B0F5AF6F01D280
:105A100001205871F0BC00F033B800000AD7233DD4
:105A200024230020A02300209C370020803B00205E
:105A3000F00200206A020020CDCCCC3D6C02002098
:105A4000000034430000B443000034C309494868EF
:105A5000401E4860002804DC0748017821F001015D
:105A600001700648817D002903D000218175FBF774
:105A70004DBA7047F80200206A020020803B0020E7
:105A80002DE9F047294C2378DFF8A480294D002622
:105A9000B8F80420B8F80610287840F24C474FF0C8
:105AA0000109012B02D0022B29D118E0BA423BD2C6
:105AB00040F26C72914237D96178491CC9B2617069
:105AC00064291CD966700221217040F00100287001
:105AD00000F046F8FEF718FC02F0AEFD0FE0BA4207
